:020000041A00E0
:10000000008000100105001A2501001A2701001ABE
:100010002901001A2B01001A2D01001A3275FF5315
:10002000000000000000000000000000B120001AE5
:100030003101001A000000005121001AB521001AF8
:100040006701001A6701001A6701001A000000002A
:100050006701001A6701001A6701001A6701001A98
:100060008D33001A6701001A6701001A6701001A30
:100070006701001A6701001A6701001A6701001A78
:100080006701001A6701001A6701001A6701001A68
:100090006701001A6701001A6701001A6701001A58
:1000A0006701001A6701001A6701001A6701001A48
:1000B0006701001A6701001A6701001A6701001A38
:1000C00084A1001A000000100009000084A1001A99
:1000D000000008100000000084A1001A00000020A9
:1000E0000000000084A1001A008000200000000031
:1000F00084A1001A00C000200000000000090010C8
:10010000382B000000000810000000000000002054
:1001100000000000008000200000000000C000205F
:1001200000000000FEE7FEE7FEE7FEE7FEE7FEE771
:10013000FEE7FEE7FEE7002393420AD210B404680C
:100140000C600433043004319342F8D35DF8044B5F
:1001500070477047002303E000220260043304303C
:100160008B42F9D37047FEE7FFFFFFFFFFFFFFFF62
:10017000FFFFFFFFFFFFFFFFFFFFFFFFFFFFFFFF8F
:10018000FFFFFFFFFFFFFFFFFFFFFFFFFFFFFFFF7F
:10019000FFFFFFFFFFFFFFFFFFFFFFFFFFFFFFFF6F
:1001A000FFFFFFFFFFFFFFFFFFFFFFFFFFFFFFFF5F
:1001B000FFFFFFFFFFFFFFFFFFFFFFFFFFFFFFFF4F
:1001C000FFFFFFFFFFFFFFFFFFFFFFFFFFFFFFFF3F
:1001D000FFFFFFFFFFFFFFFFFFFFFFFFFFFFFFFF2F
:1001E000FFFFFFFFFFFFFFFFFFFFFFFFFFFFFFFF1F
:1001F000FFFFFFFFFFFFFFFFFFFFFFFFFFFFFFFF0F
:10020000FFFFFFFFFFFFFFFFFFFFFFFFFFFFFFFFFE
:10021000FFFFFFFFFFFFFFFFFFFFFFFFFFFFFFFFEE
:10022000FFFFFFFFFFFFFFFFFFFFFFFFFFFFFFFFDE
:10023000FFFFFFFFFFFFFFFFFFFFFFFFFFFFFFFFCE
:10024000FFFFFFFFFFFFFFFFFFFFFFFFFFFFFFFFBE
:10025000FFFFFFFFFFFFFFFFFFFFFFFFFFFFFFFFAE
:10026000FFFFFFFFFFFFFFFFFFFFFFFFFFFFFFFF9E
:10027000FFFFFFFFFFFFFFFFFFFFFFFFFFFFFFFF8E
:10028000FFFFFFFFFFFFFFFFFFFFFFFFFFFFFFFF7E
:10029000FFFFFFFFFFFFFFFFFFFFFFFFFFFFFFFF6E
:1002A000FFFFFFFFFFFFFFFFFFFFFFFFFFFFFFFF5E
:1002B000FFFFFFFFFFFFFFFFFFFFFFFFFFFFFFFF4E
:1002C000FFFFFFFFFFFFFFFFFFFFFFFFFFFFFFFF3E
:1002D000FFFFFFFFFFFFFFFFFFFFFFFFFFFFFFFF2E
:1002E000FFFFFFFFFFFFFFFFFFFFFFFFFFFFFFFF1E
:1002F000FFFFFFFFFFFFFFFFFFFFFFFFFFFFFFFF0E
:1003000030B583B003F050F8002411E0E3B203F1FC
:10031000240062002244D100244D0D4468702A3329
:10032000AB7000220421012000F0F3FB28610134AE
:10033000032CEBDD002400E00134032C16DC04EB7D
:100340004402D3001A4A52F824200192012200925A
:10035000164A1344B4221749174801F07EF80128C1
:10036000EAD1611C154804F0DBFDE5E7002400E05C
:100370000134032C16DC04EB4402D3000C4A52F87F
:100380002420019201220092084A1344B4220C490D
:100390000C4801F062F80128EAD1611C0A4804F017
:1003A000BFFDE5E701F08CF8FEE700BF90330010D9
:1003B00080330010349C001A9704001A409C001AE5
:1003C000589C001AA904001A649C001A10B504462F
:1003D00001F0CCF8E06010BD10B5044601F0C6F89D
:1003E000A060E368C01A214641F8040F00234FF0D3
:1003F000FF32206900F0B4FB10BD0023037070478A
:1004000010B504460378032B42D8DFE803F002223C
:100410000B2A90F9010002F084FF00283AD1022350
:10042000237010BD037D272B03D8237D0133237553
:1004300010BD90F9010002F074FF20B10023237079
:1004400000232375F1E7012323702046FFF7BEFF49
:10045000F6E790F9010002F064FFD8B1032323709E
:1004600010BD437D272B03D8637D0133637510BD19
:1004700090F9010002F055FF20B9012323700023F9
:100480006375F1E7002323702046FFF7A5FFF6E729
:10049000FFF7B3FF10BD10B504462046FFF7B0FFCD
:1004A000012001F0CDF9F8E710B582B00446002331
:1004B000019301F05BF8009014E001F057F8009010
:1004C000012194F9020002F0F7FE019801F0B8F959
:1004D000002194F9020002F0EFFE4FF47A716846B1
:1004E00001F058F9002201A9206900F06DFC019B80
:1004F000B3F57A7FE1D94FF47A730193DDE7704762
:1005000010B572B6194A1A4B1A601A4A04331A60A7
:10051000002305E04FF0FF31174A42F82310013362
:10052000072BF7D962B6154B07E003F10C049A6864
:1005300059681868FFF7FFFD2346114A9342F4D328
:1005400006E01C46596854F8080BFFF703FE2346E3
:100550000C4A9342F5D302F091FD04F013F9FFF732
:10056000CEFFFFF7CDFE30BFFDE700BF0010DF106C
:1005700000310540FFF7DF0180E200E0C000001A13
:10058000FC00001A2401001A704770470923036019
:100590004FF0FF307047582303604FF0FF30704733
:1005A000022901D801207047092303604FF0FF3072
:1005B0007047582303604FF0FF307047022920D85E
:1005C0002DE9F0411D46174606460024AC4212D2E2
:1005D00001F0C7FFB0F1FF3FF8D004F10108385532
:1005E0000D2803D00A2801D04446EFE701F0B9FFF7
:1005F0004046BDE8F081132333604FF0FF30BDE883
:10060000F081132303604FF0FF30704702290CD8AC
:1006100070B51D461646002403E0305D01F09CFFD6
:100620000134AC42F9D3284670BD132303604FF068
:10063000FF307047054B1B6823B1044B1868014419
:1006400019607047024A014B1A60F6E70009001072
:1006500038340010124A12F0070F1ED0D11D21F0BD
:100660000701C1F5005313440A460E4802600021F9
:1006700041601344083B23F007030B4803605960B3
:100680001960991A51601360084B1960084B196082
:100690004FF00042074B1A6070474FF40053E4E7F5
:1006A0000809001014290010040900101029001076
:1006B0000C2900100829001010B4134B1A6882424C
:1006C0001BD359685C18A04203D1406801445960AB
:1006D000184641684418A24213D10C4C2468A24227
:1006E0000DD05268114441601A6812680260984245
:1006F00000D018605DF8044B70471346DEE70460D5
:10070000F5E70260F3E700BF1429001004090010A8
:1007100070B5044600F022FF3C4B1B68BBB13C4B5C
:100720001B681C4264D1ACB1083414F0070F11D01F
:1007300024F00704083404F007035BB14FF0A00372
:1007400083F31188BFF36F8FBFF34F8FFEE7FFF77F
:1007500081FFE4E7002C4DD02E4B1B689C424BD808
:100760002D4B1D6801E02B4615466A68944202D95C
:100770002A68002AF7D1254A126895423ED01E68A1
:1007800008362A681A606B681B1B102B10D92819B1
:1007900010F0070F08D04FF0A00383F31188BFF3C8
:1007A0006F8FBFF34F8FFEE743606C60FFF784FFEE
:1007B0006A6818490B689B1A0B60184909688B42D4
:1007C00001D216490B60124B1B6813436B60002368
:1007D0002B6000F061FF9EB116F0070F13D04FF0B1
:1007E000A00383F31188BFF36F8FBFF34F8FFEE732
:1007F0000026EEE70026ECE70026EAE70026E8E719
:1008000000F044FCE8E7304670BD00BF040900106A
:10081000082900100C2900101429001010290010BC
:1008200080B338B50446A0F1080550F8042C1649E9
:1008300009680A4208D14FF0A00383F31188BFF37F
:100840006F8FBFF34F8FFEE750F8080C40B14FF0A9
:10085000A00383F31188BFF36F8FBFF34F8FFEE7C1
:1008600022EA010244F8042C00F078FE54F8041C3B
:10087000064A13680B4413602846FFF71DFF00F07B
:100880000BFF38BD704700BF082900100C2900106D
:1008900010B5044601F01EFCA26BE36B9A4204D033
:1008A000002401F039FC204610BD0124F9E710B501
:1008B000044601F00FFCA36B23B1002401F02CFCD3
:1008C000204610BD0124F9E770B504461646856B35
:1008D000026C4AB9036853BB406801F01BF900235E
:1008E00063600135A56370BD6EB9806804F01CFAC1
:1008F000226CA3681344A3606268934219D32368EF
:10090000A3600020EDE7C06804F00EFA236C5B42A0
:10091000E2681A44E26021688A4202D262681344A3
:10092000E360022E07D145B1013D0020D9E7002048
:10093000D7E70020D5E70020D3E70020D1E7026CFD
:1009400072B110B50346C4681444C4604068844260
:1009500001D31868D8600846D96804F0E5F910BDDD
:10096000704738B5054601F0B5FB95F8454064B2CF
:1009700001E0013C64B2002C0ADD6B6A43B105F171
:10098000240001F01FF80028F3D001F0ADF8F0E7E3
:10099000FF2385F8453001F0BFFB01F09BFB95F884
:1009A000444064B201E0013C64B2002C0ADD2B69D2
:1009B00043B105F1100001F005F80028F3D001F073
:1009C00093F8F0E7FF2385F8443001F0A5FB38BD2C
:1009D00038B530B304460D4601F07CFB2168E26B6C
:1009E000236C03FB021060600020A063A160013A49
:1009F00002FB0313E360FF2384F8443084F845309E
:100A0000C5B92369F3B104F1100000F0DBFFC8B1F0
:100A10004FF080520D4B1A60BFF34F8FBFF36F8FB3
:100A200010E04FF0A00383F31188BFF36F8FBFF383
:100A30004F8FFEE704F1100000F0B1FA04F124003A
:100A400000F0ADFA01F068FB012038BD04ED00E0D4
:100A500038B51D46049C0B4649B12260E06323640F
:100A600001212046FFF7B4FF84F84C5038BD2460C4
:100A7000F4E740B94FF0A00383F31188BFF36F8F01
:100A8000BFF34F8FFEE710B584B0044663B1A2B147
:100A9000A9B10120A8B94FF0A00383F31188BFF3D7
:100AA0006F8FBFF34F8FFEE74FF0A00383F31188E2
:100AB000BFF36F8FBFF34F8FFEE70120EAE70020FF
:100AC000E8E70AB901B1002040B94FF0A00383F371
:100AD0001188BFF36F8FBFF34F8FFEE75020039055
:100AE0000398502808D04FF0A00383F31188BFF378
:100AF0006F8FBFF34F8FFEE720461C46012384F81B
:100B0000463000949DF81830FFF7A2FF204604B04D
:100B100010BD40B94FF0A00383F31188BFF36F8F6E
:100B2000BFF34F8FFEE7F0B583B0064611B101FB6E
:100B300000F000E0002017460C465030FFF7E8FDBB
:100B4000054650B1002380F8463000903B4600F146
:100B5000500221463046FFF77BFF284603B0F0BD28
:100B6000F0B585B0019260B1044699B10125BDB9D7
:100B70004FF0A00383F31188BFF36F8FBFF34F8F44
:100B8000FEE74FF0A00383F31188BFF36F8FBFF32D
:100B90004F8FFEE7026C0AB90125E8E70025E6E77A
:100BA000022B09D06DB94FF0A00383F31188BFF376
:100BB0006F8FBFF34F8FFEE7E26B012AF2D0002563
:100BC000F0E71E460F4600F095FF10B9019B03B1F8
:100BD000002545B94FF0A00383F31188BFF36F8F51
:100BE000BFF34F8FFEE700252CE032463946204602
:100BF000FFF76AFE636A8BB104F1240000F0E2FEA5
:100C000038B14FF08052374B1A60BFF34F8FBFF3AC
:100C10006F8F01F081FA012005B0F0BD0028F8D0F7
:100C20004FF080522F4B1A60BFF34F8FBFF36F8F7F
:100C3000EFE701F071FA0020EEE72046FFF791FEA2
:100C400000F02AFD01F046FAA26BE36B9A42CCD386
:100C5000022ECAD0019B002BEBD01DB902A800F0D8
:100C6000F7FE012501F058FA00F078FC01F032FAA5
:100C700094F844305BB2B3F1FF3F02D1002384F813
:100C8000443094F845305BB2B3F1FF3F02D100230A
:100C900084F8453001F040FA01A902A800F0E4FE12
:100CA000C8B92046FFF7F4FD0028C6D0019904F129
:100CB000100000F053FE2046FFF753FE00F0ECFC5E
:100CC0000028BFD14FF08052064B1A60BFF34F8F00
:100CD000BFF36F8FB6E72046FFF743FE00F0DCFC62
:100CE000002099E704ED00E02DE9F84360B10446E7
:100CF00099B10120B8B94FF0A00383F31188BFF375
:100D00006F8FBFF34F8FFEE74FF0A00383F311887F
:100D1000BFF36F8FBFF34F8FFEE7006C08B9012060
:100D2000E8E70020E6E7022B09D068B94FF0A003FE
:100D300083F31188BFF36F8FBFF34F8FFEE7E56B2F
:100D4000012DF2D00020F0E71F469046894601F0C1
:100D5000EBFAEFF311864FF0A00383F31188BFF392
:100D60006F8FBFF34F8FA26BE36B9A4201D3022FB9
:100D700021D194F845506DB23A4649462046FFF7D6
:100D8000A3FDB5F1FF3F10D1636AB3B104F12400B4
:100D900000F018FE98B1B8F1000F12D00120C8F889
:100DA000000086F31188BDE8F8836B1C5BB284F801
:100DB00045300120F5E70020F3E70120F1E70120AD
:100DC000EFE70120EDE7FFFFF0B585B0019260B1DC
:100DD000044699B10125BDB94FF0A00383F31188F2
:100DE000BFF36F8FBFF34F8FFEE74FF0A00383F386
:100DF0001188BFF36F8FBFF34F8FFEE7036C0BB902
:100E00000125E8E70025E6E70E4600F073FE10B97D
:100E1000019B03B1002545B94FF0A00383F311886E
:100E2000BFF36F8FBFF34F8FFEE700272FE03146F0
:100E30002046FFF784FD013DA563236963B104F1FA
:100E4000100000F0BFFD38B14FF08052344B1A60F3
:100E5000BFF34F8FBFF36F8F01F05EF9012005B034
:100E6000F0BD01F059F90020F9E702A800F0F0FD0B
:100E7000012716E0002384F844301EE0002384F8A4
:100E8000453020E02046FFF76CFD00F005FC01F046
:100E900021F9A56B002DCAD1019B002BE1D0002FB9
:100EA000E3D001F039F900F059FB01F013F994F89F
:100EB00044305BB2B3F1FF3FDCD094F845305BB215
:100EC000B3F1FF3FDAD001F027F901A902A800F041
:100ED000CBFDC8B92046FFF7EAFC0028D2D0019923
:100EE00004F1240000F03AFD2046FFF73AFD00F03F
:100EF000D3FB0028CBD14FF08052094B1A60BFF3CF
:100F00004F8FBFF36F8FC2E72046FFF72AFD00F037
:100F1000C3FB2046FFF7CBFC0028B8D000209EE79B
:100F200004ED00E00023072B0CD8074A52F83320C9
:100F30000AB10133F7E7044A42F8331002EBC30366
:100F400058607047704700BFF033001070B504461A
:100F50000D46164601F0BEF894F844305BB2B3F18A
:100F6000FF3F0DD094F845305BB2B3F1FF3F0BD09B
:100F700001F0D2F8A36B5BB12046FFF7F2FC70BD25
:100F8000002384F84430EDE7002384F84530EFE790
:100F90003246294604F1240000F0F8FCECE700F1A9
:100FA000080343604FF0FF328260C3600361002397
:100FB0000360704700230361704743684B609A6881
:100FC0008A609A6851609960086103680133036020
:100FD000704730B40D68B5F1FF3F02D000F1080250
:100FE00002E0026904E01A4653681C68A542FAD27E
:100FF00053684B6099608A605160086103680133EF
:10100000036030BC70470369426881689160826800
:10101000416851605A68904206D0002202611A6805
:10102000013A1A601868704782685A60F5E7FFFF56
:10103000034B0360034B0B605A231360704700BFE0
:10104000243000101C290010034B0360034B0B607D
:101050004FF4B4731360704784300010842A00107A
:1010600010B582B00C4601900023009301F032F8D5
:1010700001992246044803F053FF009B002BFCD04B
:1010800001F04AF802B010BDF09C001A08B50448FF
:1010900003F08EFF03492C20FFF7E2FF08BD00BFDD
:1010A0007C9C001AA09C001A08B5044803F038FF85
:1010B00003495020FFF7D4FF08BD00BFC09C001AB1
:1010C000A09C001A0A4B1B681B684BB901234BB943
:1010D000074B1B68DB68DB685A68064B1A60704771
:1010E0000023F4E74FF0FF32024B1A60704700BF55
:1010F000E8300010BC3100102DE9F04781460D4664
:1011000017469A46089EDDF824800A9C9200A52185
:10111000206B03F0A3FE236B07F18042013A03EB3F
:10112000820727F00707676400230F2B07D8E95CC5
:10113000E21882F83410EA5C0AB10133F5E70023C3
:1011400084F84330062E00D90626E662266500257F
:101150006565201DFFF72EFF04F11800FFF72AFF39
:101160002461C6F10706A6616462A56584F85C5037
:1011700052464946384600F085FF2060B8F1000F1E
:1011800001D0C8F80040BDE8F087FFFF38B5002463
:1011900007E004EB840293000E481844FFF7FFFEBB
:1011A0000134062CF5D90C4D2846FFF7F8FE0B4C00
:1011B0002046FFF7F4FE0A48FFF7F1FE0948FFF763
:1011C000EEFE0948FFF7EBFE084B1D60084B1C6064
:1011D00038BD00BFF030001094310010A83100106D
:1011E000C4310010F0310010DC310010E830001084
:1011F000EC30001010B5044600F06CFF214A136873
:1012000001331360204B1B68002B32D01F4B1B682F
:101210003BB91D4B1B68DA6AE36A9A4201D81A4B44
:101220001C601B4A136801331360A364E36A012244
:101230009A401849086802430A6003EB83039A0046
:10124000211D15481044FFF7B8FE00F065FF0F4B55
:101250001B686BB10C4B1B68DA6AE36A9A4207D2CF
:101260004FF080520D4B1A60BFF34F8FBFF36F8F5B
:1012700010BD054B1C601368012BD2D1FFF786FF10
:10128000CFE700BF7C310010E4300010D8310010EF
:101290008C31001090310010F030001004ED00E0AF
:1012A00010B5044690F85D3063B1012B11D0022BCC
:1012B00012D04FF0A00383F31188BFF36F8FBFF3F9
:1012C0004F8FFEE7006BFFF7ABFA2046FFF7A8FA57
:1012D00010BDFFF7A5FA10BD10BDFFFF0F4B1B6837
:1012E000D3B110B500F0F6FE0D4BDB68DC68201DB5
:1012F000FFF789FE0B4A1368013B1360074A136826
:10130000013B136000F008FF2046FFF7C9FF034BC5
:101310001B68002BE6D110BD704700BF8031001064
:10132000F03100107C31001008B5FFF7D7FF064BF5
:101330001B68012BF9D94FF08052044B1A60BFF3A0
:101340004F8FBFF36F8FF0E7F030001004ED00E037
:1013500070B504460E461D4B1D681D4B18680430C1
:10136000FFF751FE50B91A4B1B68DA6A012303FAE2
:1013700002F218490B6823EA02030B60B4F1FF3F45
:1013800013D02C44124B1B685C60A54216D8124B3C
:1013900018680F4B19680431FFF71BFE0F4B1B68D1
:1013A0009C4201D20D4B1C6070BD002EE9D0084B51
:1013B000196804310A48FFF700FE70BD094B186830
:1013C000034B19680431FFF704FE70BD04320010AE
:1013D000E430001090310010E8300010BC310010F3
:1013E000DC310010EC30001070B586B00B9D0C9C09
:1013F00075B1B4B160260496049E602E1AD04FF0E9
:10140000A00383F31188BFF36F8FBFF34F8FFEE705
:101410004FF0A00383F31188BFF36F8FBFF34F8F9B
:10142000FEE74FF0A00383F31188BFF36F8FBFF384
:101430004F8FFEE72563022584F85D500025039554
:10144000029405AD01950A9D0095FFF755FE2046D3
:10145000FFF7D0FE059806B070BD2DE9F04385B0CA
:1014600006460F46154698469000FFF751F910B30F
:1014700081466020FFF74CF90446C0B1C0F83090B7
:10148000DCB1002384F85D30039302940D9B01933B
:101490000C9B009343462A4639463046FFF72CFE04
:1014A0002046FFF7A7FE012005B0BDE8F0834846BF
:1014B000FFF7B6F9E4E70024E2E74FF0FF30F3E787
:1014C00010B588B000240594069407AA06A905A8BB
:1014D000FFF7AEFD059B0293069B01930094234604
:1014E000079A19491948FFF77FFF48B101200128E1
:1014F00008D0012809D0B0F1FF3F1BD008B010BDC3
:101500000020F4E700F0CCFBF3E74FF0A00383F3F7
:101510001188BFF36F8FBFF34F8F4FF0FF320C4B2B
:101520001A6001220B4B1A6000220B4B1A6000F06C
:1015300073FEE3E74FF0A00383F31188BFF36F8FCF
:10154000BFF34F8FFEE700BF309D001A2913001A2A
:10155000BC310010D831001004320010024A136868
:1015600001331360704700BF88310010014B1868C9
:10157000704700BF04320010F8B53C4B1B68002BCD
:1015800068D13B4B1D6801351D60C5B9394B1B68DF
:101590001B6843B14FF0A00383F31188BFF36F8F33
:1015A000BFF34F8FFEE7334A1168334B1868106062
:1015B0001960324A136801331360FFF783FD304B23
:1015C0001B689D423AD200242E4B1B68DB6A03EB5A
:1015D00083039A002C4B9B58012B40D901243EE0F9
:1015E0000124244B1B681B6853B3002353BB214BBE
:1015F0001B68DB68DE6873689D4228D3371D384658
:10160000FFF701FDB36A1BB106F11800FFF7FBFC01
:10161000F36A01229A401D49086802430A6003EBFD
:1016200083039A00394618481044FFF7C6FCF26A53
:10163000144B1B68DB6A9A42D2D2D2E70024D0E76F
:101640000123D3E74FF0FF320D4B1A60BCE70C4A81
:101650001360B9E70E4A13680133136000240D4B81
:101660001B6803B101242046F8BD00BF883100107B
:1016700004320010E8300010EC300010C0310010CF
:10168000BC310010E4300010F03000109031001038
:10169000843100100832001038B5354B1B6843B94F
:1016A0004FF0A00383F31188BFF36F8FBFF34F8F09
:1016B000FEE700F00FFD2E4B1A68013A1A601B6816
:1016C000002B50D12B4B1B6823B9002400F024FDC4
:1016D000204638BD0024284B1B681BB3264BDB6813
:1016E000DC6804F11800FFF78EFC251D2846FFF783
:1016F0008AFCE36A01229A402049086802430A6092
:1017000003EB83039A0029461D481044FFF755FC5C
:10171000E26A1C4B1B68DB6A9A42DCD301221A4B3B
:101720001A60D8E70CB1FFF7CDFC184B1C6874B9F0
:10173000154B1B68CBB14FF08052154B1A60BFF3AD
:101740004F8FBFF36F8F0124C0E7013C07D0FFF735
:1017500013FF0028F9D001220B4B1A60F5E7002295
:101760000A4B1A60E4E70024B0E70024AEE700BFAC
:10177000883100107C310010C4310010903100100D
:10178000F0300010E43000100832001084310010F6
:1017900004ED00E038B550B1054689B94FF0A0031B
:1017A00083F31188BFF36F8FBFF34F8FFEE74FF0C6
:1017B000A00383F31188BFF36F8FBFF34F8FFEE752
:1017C0001C4B1B6843B14FF0A00383F31188BFF398
:1017D0006F8FBFF34F8FFEE70C46FFF7BFFE164B30
:1017E00018682A681444904216D2A2421AD9A0421C
:1017F0001AD300222C601AB10021201AFFF7A8FD8D
:10180000FFF74AFF38B94FF080520C4B1A60BFF314
:101810004F8FBFF36F8F38BDA24207D8A04207D3C6
:101820000022E7E70022E5E70122E3E70122E1E702
:101830000122DFE7883100100432001004ED00E0DF
:1018400010B5A8B10446104B1B6843B14FF0A0037C
:1018500083F31188BFF36F8FBFF34F8FFEE7FFF75E
:101860007DFE00212046FFF773FDFFF715FF00E026
:10187000002038B94FF08052044B1A60BFF34F8FED
:10188000BFF36F8F10BD00BF8831001004ED00E082
:101890002D4B1B6853BB10B500222C4B1A602C4BF0
:1018A0001B681B6B1A68B2F1A53F03D15A68B2F1ED
:1018B000A53F1FD0264B186819683431FFF7F4FB99
:1018C000244B1B68B3FA83F3DBB2C3F11F0303EBB2
:1018D00083018A0020498A58AAB94FF0A00383F3F4
:1018E0001188BFF36F8FBFF34F8FFEE70122174BB5
:1018F0001A6070479A68B2F1A53FDBD1DB68B3F19B
:10190000A53FD7D1DCE714489A00D418A1000144C0
:101910004C6864684C601A44910008310844844261
:1019200009D003EB83039A000B4B13445B68DA681E
:10193000074B1A6010BD606803EB83029100064AF2
:101940000A445060EDE700BF8831001008320010F3
:10195000E430001090310010F030001040B94FF02A
:10196000A00383F31188BFF36F8FBFF34F8FFEE7A0
:1019700010B50C46044B19681831FFF72AFB0121FA
:101980002046FFF7E5FC10BDE430001038B570B11B
:101990000C4615460A4A11681831FFF70EFB0DB1C7
:1019A0004FF0FF3429462046FFF7D2FC38BD4FF0F8
:1019B000A00383F31188BFF36F8FBFF34F8FFEE750
:1019C000E430001038B5C368DC6824B304F11805AE
:1019D0002846FFF718FB184B1B682BBB251D284614
:1019E000FFF711FBE36A01229A4014490868024399
:1019F0000A6003EB83039A00294611481044FFF75D
:101A0000DCFAE26A0F4B1B68DB6A9A4211D90120AB
:101A10000D4B186038BD4FF0A00383F31188BFF35E
:101A20006F8FBFF34F8FFEE729460848FFF7C5FACF
:101A3000E7E7002038BD00BF88310010903100106A
:101A4000F0300010E430001008320010C4310010F3
:101A5000034B1B680360034B1B684360704700BF68
:101A6000C031001004320010F8B5E0B1054619B3DA
:101A70000C4600F02FFB1A4B18686968421A23685D
:101A8000B3F1FF3F28D02F68164E3668B74201D019
:101A9000884223D29A4218D300232360012400F005
:101AA0003BFB2046F8BD4FF0A00383F31188BFF342
:101AB0006F8FBFF34F8FFEE74FF0A00383F31188C2
:101AC000BFF36F8FBFF34F8FFEE79B1A236028464B
:101AD000FFF7BEFF0024E2E70024E0E70124DEE791
:101AE00004320010C03100100122014B1A6070470F
:101AF00008320010054B1B6823B1054B1B681BB94E
:101B0000022070470120704700207047D831001034
:101B10008831001000284AD038B50446274A126898
:101B2000904208D04FF0A00383F31188BFF36F8F6A
:101B3000BFF34F8FFEE7426D42B94FF0A00383F32E
:101B40001188BFF36F8FBFF34F8FFEE7013A4265F5
:101B5000C06A216D88422CD06ABB251D2846FFF73C
:101B600052FA70B9E26A02EB82018B001449CB5839
:101B70003BB9012303FA02F212490B6823EA02037C
:101B80000B60236DE362C3F10702A261012404FA32
:101B900003F20C49086802430A6003EB83039A00CE
:101BA000294607481044FFF708FA204638BD0020B0
:101BB0007047002038BD002038BD00BFE430001061
:101BC000F030001090310010064B1A681368B3FA19
:101BD00083F35B09036013B9D3681868704700206A
:101BE000704700BF0C32001008B54160006191429F
:101BF0000CD8D21A83699A4201D3012008BD011D75
:101C0000094B1868FFF7E5F9002008BD9A4201D298
:101C1000994206D2011D054B1868FFF7DAF900203A
:101C200008BD012008BD00BF103200100C320010AA
:101C300030B583B000F04EFA114B1B681BB100F0B9
:101C40006BFA03B030BD0F4D2846FFF7A8F90E4CD4
:101C50002046FFF7A4F90D4B1D600D4B1C600023BF
:101C600000930C4B0C4A10210A20FEF702FF044B94
:101C700018600028E3D00949FFF754F9DFE700BFF7
:101C800030330010B4320010C83200100C32001093
:101C900010320010E032001014320010389D001A8B
:101CA00010B588B0FFF7C4FF154B1B681BB30024A9
:101CB0000594069407AA06A905A8FFF7C5F9059B90
:101CC0000293069B0193042300932346079A0D4930
:101CD0000D48FFF789FB0D4B186050B1012060B92A
:101CE0004FF0A00383F31188BFF36F8FBFF34F8FC3
:101CF000FEE72046F3E70020F1E708B010BD00BF83
:101D000030330010409D001AF11F001A34330010C8
:101D1000C0B130B585B015460446174A106840B3C7
:101D20001A4600910195029405291CDCFFF7E2FE9A
:101D3000022810D000231A4669460F480068FEF7B3
:101D40000FFF14E04FF0A00383F31188BFF36F8FF0
:101D5000BFF34F8FFEE70023089A694606480068E4
:101D6000FEF7FEFE03E000236946FEF7BDFF05B067
:101D700030BD0020FBE700BF3033001070B582B0EB
:101D80001A4B1B681A6852B3DB681E68DC68251D95
:101D90002846FFF738F9636A20469847E369012B24
:101DA000EED1A36933449E4207D263602461294681
:101DB0000E4B1868FFF70DF9E2E7002100910B4682
:101DC00032462046FFF7A4FF0028D9D14FF0A003E8
:101DD00083F31188BFF36F8FBFF34F8FFEE7044A81
:101DE000106802490860136002B070BD0C32001028
:101DF0001032001038B50546FFF7B8FB0446074B14
:101E00001B68984205D300232B60044B1C602046BE
:101E100038BDFFF7B3FF01232B60F6E7DC3200107B
:101E200070B582B005460E46144B1B68DB68DC6853
:101E3000201DFFF7E8F8E369012B04D0636A204610
:101E4000984702B070BDA1692B463246294420460E
:101E5000FFF7CAFE0028F1D0002100910B462A4668
:101E60002046FFF755FF0028E8D14FF0A00383F389
:101E70001188BFF36F8FBFF34F8FFEE70C32001056
:101E800070B582B006460C46FFF768FB01A8FFF765
:101E9000B1FF019B23BB05460CB9B04219D22CB14E
:101EA000114B1B681C68B4FA84F464092246711B48
:101EB0000E4B1868FFF74AF8FFF7EEFB38B94FF002
:101EC00080520B4B1A60BFF34F8FBFF36F8F02B07E
:101ED00070BDFFF7E1FB29463046FFF7A1FFF6E7AB
:101EE000FFF7DAFBF3E700BF1032001030330010C9
:101EF00004ED00E030B589B002E0049B002B0FDA5E
:101F0000002204A9394B1868FEF75EFF00286AD04A
:101F1000049B002BF1DA07990698059B9847ECE79C
:101F2000069C636913B1201DFFF76DF803A8FFF746
:101F300061FF049B092BE3D801A252F823F000BFF4
:101F4000691F001A691F001A691F001A011F001A71
:101F5000B11F001AD71F001A691F001A691F001A43
:101F6000011F001AB11F001A0599A5690B46024608
:101F700029442046FFF738FE0028C1D0636A204676
:101F80009847E369012BBBD1A269002100910B4660
:101F9000059802442046FFF7BBFE0028B0D14FF061
:101FA000A00383F31188BFF36F8FBFF34F8FFEE75A
:101FB0000599A16131B10346024601442046FFF76D
:101FC00013FE9DE74FF0A00383F31188BFF36F8FDB
:101FD000BFF34F8FFEE794F82C30002B90D12046B2
:101FE000FEF71EFC8CE709B030BD00BF3033001097
:101FF00000B583B001A8FFF7E7FD0199FFF740FFA7
:10200000FFF778FFF6E7FFFF82B0002301930D4B47
:102010001B68B3F1FF3F08D04FF0A00383F3118892
:10202000BFF36F8FBFF34F8FFEE74FF0A00383F333
:102030001188BFF36F8FBFF34F8F019B002BFCD034
:1020400002B070470000001008480068006880F384
:1020500008884FF0000080F3148862B661B6BFF3C1
:102060004F8FBFF36F8F00DF00BF000008ED00E06F
:10207000DFF80C00016841F4700101607047000056
:1020800088ED00E04FF0807340F8043C21F001013E
:1020900040F8081C054B40F80C3C40F8202C6FF031
:1020A000020340F8243C4438704700BF0920001A5E
:1020B000074B19680868B0E8F04F80F30988BFF350
:1020C0006F8F4FF0000080F311887047AFF30080EE
:1020D000E43000104FF0A00383F31188BFF36F8F3B
:1020E000BFF34F8F0A4A136801331360012B0DD1E0
:1020F000084B1B6813F0FF0F08D04FF0A00383F3C9
:102100001188BFF36F8FBFF34F8FFEE7704700BF9B
:102110000000001004ED00E0094B1B6843B94FF0CC
:10212000A00383F31188BFF36F8FBFF34F8FFEE7D8
:10213000013B034A13600BB983F31188704700BF5A
:1021400000000010FFFFFFFFFFFFFFFFFFFFFFFF8B
:10215000EFF30980BFF36F8F154B1A681EF0100F55
:1021600008BF20ED108A20E9F04F10602DE909002A
:102170004FF0A00080F31188BFF34F8FBFF36F8F34
:10218000FFF786FB4FF0000080F3118809BC196847
:102190000868B0E8F04F1EF0100F08BFB0EC108ACE
:1021A00080F30988BFF36F8F704700BFAFF30080E3
:1021B000E430001008B54FF0A00383F31188BFF39B
:1021C0006F8FBFF34F8FFFF7D7F918B14FF08052E1
:1021D000024B1A60002383F3118808BD04ED00E070
:1021E000084A0023136008490B60084B1B68084924
:1021F000A1FB03139B09013B06490B6007231360F6
:10220000704700BF10E000E018E000E0303400103C
:10221000D34D621014E000E03A4B1A683A4B9A42F0
:1022200008D14FF0A00383F31188BFF36F8FBFF382
:102230004F8FFEE7334B1A68344B9A4208D14FF068
:10224000A00383F31188BFF36F8FBFF34F8FFEE7B7
:1022500010B582B02E4B1A78D2B20192FF221A70BA
:102260001B78DBB28DF803309DF8033003F0A00338
:10227000284A13700722284B1A6009E0264A13687F
:10228000013B13609DF803305B00DBB28DF8033037
:102290009DF8033013F0800FF0D11F4B1B68042B07
:1022A00008D04FF0A00383F31188BFF36F8FBFF303
:1022B0004F8FFEE71B0203F4E063174A1360019B94
:1022C000DBB2134A1370154B1A6842F460021A60AD
:1022D0001A6842F060421A60FFF782FF0024104B38
:1022E0001C60FFF7C5FE0F4A136843F040431360BC
:1022F000FFF7AAFEFFF7CCFAFFF786FE204602B0F2
:1023000010BD00BF00ED00E071C20F4170C20F416F
:1023100000E400E0383300103C33001020ED00E012
:102320000000001034EF00E0EFF305830F2B0FD90E
:10233000104A9B5CDBB2104A1278934208D24FF0ED
:10234000A00383F31188BFF36F8FBFF34F8FFEE7B6
:102350000A4B1B6803F4E063094A1268934208D9E8
:102360004FF0A00383F31188BFF36F8FBFF34F8F3C
:10237000FEE77047F0E300E0383300100CED00E0BA
:102380003C3300100022052A19D870B40C4911F80A
:10239000125001EB42014C780A4B05F5006653F8E8
:1023A00026100120A040014343F8261003EB4513FB
:1023B000002119550132052AE8D970BC70477047D1
:1023C000549D001A00400F400023032B16D830B450
:1023D0000B4911F8132001EB43014D78094C02F52C
:1023E000006254F822100120A84021EA000144F8BC
:1023F00022100133032BEBD930BC7047704700BF6C
:102400004C9D001A00400F400023082B16D830B412
:102410000B4911F8132001EB43014D78094C02F5EB
:10242000006254F822100120A84021EA000144F87B
:1024300022100133082BEBD930BC7047704700BF26
:10244000609D001A00400F4010B582B0084C6946EC
:10245000204600F0BFF9074A6946204600F0DAF945
:1024600000226946204600F0EEF902B010BD00BF20
:1024700000300E40801A060010B50B4C204600F0CC
:10248000A3FD636823F004036360236823F0FF0364
:1024900043F0070323600549204600F076FD63689A
:1024A00043F00203636010BD00500C40A0860100A1
:1024B00008B5002000F0B4FD40F60802034BC3F855
:1024C000842C0349002000F0BDFD08BD00600840D9
:1024D00040420F0010B5074C204600F0B9F84FF409
:1024E000E131204600F0DEF80323E3600123E365D9
:1024F00010BD00BF00100C40034B5B6913F0200FB0
:10250000FAD0014B1860704700100C40054B5B6916
:1025100013F0010F03D0034B1868C0B270474FF09F
:10252000FF30704700100C4008B5FFF7D3FF094893
:1025300000F00AFDFFF768FFFFF786FFFFF79CFF3B
:10254000FFF7B6FFFFF71EFFFFF73EFF00F082F92F
:1025500008BD00BF00400F4008B5C0B2FFF7CCFF78
:1025600008BD08B5FFF7D2FF08BD08B5FFF7B2FFF9
:1025700008BDFFFF00231C2B12D810B4094A02EB40
:10258000830112F823404A78488802EB4412064936
:1025900041F8220001331C2BF0D95DF8044B704741
:1025A000704700BF7C9D001A0060084010B5174AB4
:1025B000D2F8203123F4704343F41043C2F82031A1
:1025C000D2F8243123F4704343F41043C2F8243189
:1025D00001220F49062000F00DFC00244CB10B4BEA
:1025E0005A6822F00C025A605A6842F003025A609C
:1025F00010BD084800EB840101238A78497810F85F
:10260000240000F053FB0134E8E700BF0030044031
:1026100000CB280C789D001A08B5FFF7ABFFFFF739
:10262000C5FF08BD094B984209D003F58053984275
:1026300007D0A3F58023984205D0002070470220E0
:102640007047032070470120704700BF00100C4006
:1026500030B583B00446FFF7E5FF01231A4619465B
:102660000E4D35F8100000F067FB0723A360002330
:10267000E3656360E3602362E36463652365084B9D
:102680009C4206D00323E3601023A362019B03B0A6
:1026900030BD00232361A3690193F3E7F89D001A7D
:1026A000002008402DE9F04F83B083468846FFF7AD
:1026B000B9FF354B33F8100000F076FB06464FF0BB
:1026C000FF37012400230193A24699462AE04342A2
:1026D0004A1C17E00BB31F460195A24691460135EF
:1026E000AC421ED933093007A4FB000104FB0311DF
:1026F000621908FB02F2002301F01CFB03460A46A4
:102700000028E4DB9F42EAD3002AE8D0110CE6D18E
:10271000022ADFD8002DE2D1DCE71F460195A24650
:10272000914601341FB10F2C01D80025D8E7B9F12B
:10273000000F24D0DBF80C3043F08003CBF80C30D2
:102740005FFA89F3CBF80030C9F30723CBF80430E4
:10275000DBF80C3023F08003CBF80C304FEA0A137F
:10276000DBB2019901F00F021343CBF82830330993
:1027700003FB0AF38A440AFB09F9B3FBF9F948465B
:1027800003B0BDE8F08F00BFF09D001A034B9842E4
:1027900001D0032070470420704700BF00400E4066
:1027A00070B50D4614461E46FFF7F0FF00F0FCFA28
:1027B00065B904EB840304EB430404EB40006400BC
:1027C000B0FBF4F0C0B20138C0B270BD04FB06F437
:1027D000F3E7FFFF38B505460C46FFF7D7FF0123A7
:1027E0001A46194600F0A8FA0021E960084A22605A
:1027F000217161710B232846FFF7D2FF000240F4DC
:10280000001023795B0403F460231843286038BD6B
:10281000801A060070B505460E46046824F46F243D
:1028200024F470640A600B79C3F10B03DBB24979BD
:10283000FFF7B6FF44EA00203479640404F460240E
:102840002043286070BD08B50A710A68FFF7E2FFEF
:1028500008BDFFFF08B5692000F0A6FA014B18601B
:1028600008BD00BF30340010F0B50B6813F0800FC6
:1028700002D023F040030B60074601253BE04B6983
:1028800003FB02F3B3FBF5F314E01C4620E0CEF1AA
:10289000000E20E00132B2F5807F26DC0C6814F0D7
:1028A000400FECD0731C02FA03FE4B6903FB0EF3DE
:1028B000B3FBF5F3DFF848E07345EBD9DFF844E00C
:1028C000734512D814F0800FDFD1741C23FA04F47E
:1028D000B0EB040EDBD47745DCD98D60771CCF607C
:1028E0000A618C61CB617746D4E70136032E01DCA7
:1028F0000122D0E70135042D01DC0026F6E7F0BD0A
:10290000FF5E4C0900D01213F0B599B005460C4695
:1029100060220021684602F0A1FA802300936369D7
:10292000059323798DF8043069462846FFF79CFF0C
:10293000069B9D4227D0EB1A2ED41E46109B23F0F7
:10294000400310936369159323798DF8443010A9DF
:102950002846FFF789FF169B9D421FD0EB1A25D40E
:102960001F462B4B9D4223D90E9BED1A33D4AE420A
:102970003BDCBE4231DC6D460FCD0FC495E80F0045
:1029800084E80F0006E06D460FCD0FC495E80F00F8
:1029900084E80F0019B0F0BD5B42CEE710AD0FCD5B
:1029A0000FC495E80F0084E80F00F3E75B42D7E718
:1029B0004023089363690D9308A92846FFF754FF45
:1029C0000E9B9D42D0D108AD0FCD0FC495E80F00EE
:1029D00084E80F00DEE76D42C9E710AD0FCD0FC4EC
:1029E00095E80F0084E80F00D4E7AF4207DB08AD9D
:1029F0000FCD0FC495E80F0084E80F00CAE710ADB3
:102A00000FCD0FC495E80F0084E80F00C2E700BFA8
:102A100080778E0630B4054600231C2000E0013389
:102A20001C2818D103EB430251000C4A0A441479C4
:102A3000A04210D003EB43014A0008498A5AAA4237
:102A4000EDD803EB43025100044A0A4452889542F0
:102A5000E5D82046E4E730BC704700BF0C9E001A62
:102A600082B04FF47A7301930D4A936923F0020107
:102A70009269914201D00A4A916123F00303094A05
:102A80001168094A914201D943F00403044A936151
:102A9000019B5A1E0192002BFAD102B0704700BF71
:102AA00000000540749D001AFF2C31011230054BC7
:102AB00053F8200010F0010F01D011207047C0F32F
:102AC000046070470000054000F11202034B53F808
:102AD0002220034B185C00EA92007047000005407A
:102AE000049E001A08B510280AD8DFE800F0440B4D
:102AF0000D18210924272A2D09093034383C4000BB
:102B0000002008BD1E4808BD1E4BD3F82C3103F031
:102B10000703042B01D01C4808BD002008BD194B39
:102B2000D3F82C3103F00703042B27D0164808BD37
:102B3000164B186808BD164B186808BD154B186869
:102B400008BD144B586808BD00F068F808BD0021A6
:102B500000F09AF808BD012100F096F808BD0221A6
:102B600000F092F808BD032100F08EF808BD0421A2
:102B700000F08AF808BD4FF4004008BD064808BDC3
:102B8000001BB7000030044040787D01489D001ACA
:102B9000749D001A4033001080F0FA0238B50546E3
:102BA0000C460879FFF79EFF6061194B2B44194AC8
:102BB000934221D818B3802323600023A360E360ED
:102BC000B5FBF0F32361144A954203D903FB00F0EF
:102BD000854207D021462846FFF796FEA3688BB1B1
:102BE000013BA360236983B1E2680AB1013AE26064
:102BF000013B2361002038BD4FF0FF3038BD4FF05E
:102C0000FF3038BD4FF0FF3038BD4FF0FF3038BDDA
:102C1000103A6BFF1005940BFF5E4C0930B583B082
:102C2000174D6C6CC4F30360FFF75CFF154B1B681A
:102C300001932B6C13F0010F1FD0C4F30742C4F3B0
:102C40000133C4F30121C4F38015013201330DF1C6
:102C5000080E714411F8041C14F0800F08D13DB91E
:102C60004900B2FBF1F2B0FBF3F000FB02F005E02B
:102C7000B0FBF3F000FB02F000E0002003B030BD39
:102C800000000540009E001A38B50C460846FFF7C4
:102C90000DFF05462046FFF717FF04462846FFF7BD
:102CA00021FF0134B0FBF4F038BDFFFF30B400F178
:102CB0001604A40004F1804404F5A02465681B28D0
:102CC00013D811291AD00E4C2C400AB144F40064D8
:102CD0000BB144F0010444EA01641630800000F1B5
:102CE000804000F5A020446008E045F00105163062
:102CF000800000F1804000F5A020456030BC7047A6
:102D0000FEF7FFE01B2801D9112070471630800024
:102D100000F1804000F5A020406810F0010F01D0C4
:102D200011207047C0F30460704708B5FFF7EAFF51
:102D3000FFF7D8FE08BDFFFF69B901210AB141F0D4
:102D40000401022B09D0B0F5A17F09D22030074B36
:102D500043F8301070470321F0E741F02001F2E71B
:102D6000A0F59170024B43F83010704700100540F9
:102D700000200540B0F5A17F08D2094A203052F862
:102D8000303043F0010342F830307047054AA0F577
:102D9000917052F8303043F0010342F83030704700
:102DA000001005400020054010B5B0F5A17F09D303
:102DB000A0F591730D4A52F8334014F0010F07D17A
:102DC000002010BD00F12003094A52F83340F4E717
:102DD000FFF720FEFFF7A9FF14F0E00F03D1012356
:102DE000B0FBF3F010BD0223FAE700BF002005405E
:102DF0000010054070B58AB005460E4614464CF2E8
:102E000050330993062818D00023012229460420B4
:102E1000FFF74CFF494A536C43F0010353648DF8AC
:102E2000085001A93046FFF7B9FE454B9E4216D91E
:102E3000019B13F0400F03D0FEE7FFF711FEE3E71D
:102E400013F0800F05D023F08003019300250126A5
:102E500007E0049B013304930125002601E00025CF
:102E60002E469DF80820019B43EA0263059A43EA37
:102E70000243039A43EA0233049A43EA022343F4E7
:102E800000632E4A53642D4B1B6C13F0010FFAD0D4
:102E90000023012209210420FFF708FFFEB14CF2B4
:102EA00050330993099B5A1E0992002BFAD1019BBA
:102EB00043F0800301939DF8082043EA0263059ADA
:102EC00043EA0243039A43EA0233049A43EA0223A1
:102ED00043F40063194A53646CB3002429E0002DC5
:102EE000FAD04CF250330993099B5A1E0992002BD9
:102EF000FAD1049B5A1E04929DF80810019B43EAE4
:102F00000163059943EA0143039943EA013343EA24
:102F1000022343F40063094A5364DDE7094800EBE8
:102F20008401CB788A78497810F82400FFF7BEFE38
:102F30000134112CF2D90AB070BD00BF0000054069
:102F400080778E06789E001A7047FFFF034B9842E9
:102F500001D083207047A520704700BF00500C406F
:102F6000044B984202D040F2022070474FF4F170B7
:102F7000704700BF00500C40036823F47F430902F0
:102F800089B20B4303600261704770B506460D4677
:102F9000FFF7E6FFFFF708FF02224FF0FF330021A3
:102FA00000E02146AB420BD94C1C04FB02F3B0FB02
:102FB000F3F39D42F6D2FF2CF3D902320021F1E760
:102FC0003046FFF7D9FF70BD10B50446FFF7BEFFCE
:102FD000FFF7D0FE2046FFF7C3FFFFF7CBFE636885
:102FE00023F004036360236823F0FF0343F0070327
:102FF000236002492046FFF7C8FF10BDA0860100EC
:10300000012900D07047C0EBC0008200034B13447D
:103010001A69137DDBB2042BFBD0F3E70400001028
:1030200070B50546064EC400221A930033449888B2
:10303000FFF7A0FE641BA300F3586C229A6170BDD9
:10304000040000102DE9F0410C460B4EC5002B1A70
:103050004FEA830806EB08039888FFF7A5FEB0FB4C
:10306000F4F056F8083042081A6156F808301A6928
:10307000801A5861BDE8F0810400001008B50D4BBE
:103080000D4A9A6003F50C731B6903F47F63202BD0
:103090000DD0002333B1074AD2F8883043F47003CF
:1030A000C2F88830FFF7B8FAFFF73EFA08BD0123EF
:1030B000F0E700BF00ED00E00000001A044B1860CC
:1030C000044A136843F0010313600120704700BFF6
:1030D0003C000010001000E030B40B4D00EB80000D
:1030E0002C182856087094F90110117094F90220D8
:1030F0001A7094F90320029B1A7094F90420039B20
:103100001A7030BC704700BFC09E001A10F1020F49
:1031100000F0C780B0F1FF3F00F0C58070B584B00B
:103120000C4600238DF80F308DF80E308DF80D30E1
:103130008DF80C308DF80B300DF10B03019303ABC0
:1031400000930DF10D030DF10E020DF10F01FFF7CC
:10315000C3FF052C00F2A980DFE804F009812745B0
:1031600063035348FFF7F0FE012004B070BD9DF8E3
:103170000F109DF80E309DF80D2042F0D00203EBA9
:1031800041134C4941F823209DF80C309DF90B2048
:10319000012000FA02F1464C03F5006354F82320A5
:1031A00022EA010244F82320DFE79DF80F109DF882
:1031B0000E309DF80D2042F0C00203EB41133D4953
:1031C00041F823209DF80C309DF90B20012000FAD6
:1031D00002F1374C03F5006354F8232022EA010280
:1031E00044F82320C1E79DF80F109DF80E309DF89C
:1031F0000D2042F0D80203EB41132E4941F8232061
:103200009DF80C309DF90B20012000FA02F1284CAA
:1032100003F5006354F8232022EA010244F8232036
:10322000A3E79DF80F109DF80E309DF80D2042F099
:10323000C80203EB41131F4941F823209DF80C30CD
:103240009DF90B20012000FA02F1194C03F50063EF
:1032500054F8232022EA010244F8232085E79DF850
:103260000F109DF80E309DF80D2042F0D00203EBB8
:103270004113104941F823209DF80C409DF90B2083
:10328000012000FA02F10A4B04F5006553F82560AD
:10329000314343F82510D2B203EB44130021995473
:1032A00063E7002070470020704700205DE700BF03
:1032B00000400F400060084010F1020F2DD0B0F127
:1032C000FF3F2CD010B584B00C4600238DF80F3092
:1032D0008DF80E308DF80D308DF80C308DF80B30E8
:1032E0000DF10B03019303AB00930DF10D030DF1F1
:1032F0000E020DF10F01FFF7EFFE9DF80C309DF867
:103300000B20211C18BF01215B0103F1402303F5B1
:1033100070239954012004B010BD00207047002094
:10332000704710F1020F2CD0B0F1FF3F2BD000B549
:1033300085B000238DF80F308DF80E308DF80D30EC
:103340008DF80C308DF80B300DF10B03019303ABAE
:1033500000930DF10D030DF10E020DF10F01FFF7BA
:10336000BBFE9DF90C309DF80B205B0103F140235F
:1033700003F57023985C003018BF012005B05DF89C
:1033800004FB0120704700207047FFFF08B5044B85
:103390001B681B68DB68034A1068984708BD00BFBC
:1033A000343400104833001008B5FFF753FA184BB7
:1033B0001868FFF783FE05210020FFF7A7FE002114
:1033C0002420FFF7A3FE00212520FFF79FFE002108
:1033D0002620FFF79BFE00212720FFF797FE012103
:1033E0002820FFF793FE01212920FFF78FFE0121FE
:1033F0002A20FFF78BFE01212B20FFF787FE0121FA
:103400002C20FFF783FE01212D20FFF77FFE08BD52
:103410003034001081F0004102E000BF83F000432F
:1034200030B54FEA41044FEA430594EA050F08BF5F
:1034300090EA020F1FBF54EA000C55EA020C7FEA23
:10344000645C7FEA655C00F0E2804FEA5454D4EBA0
:103450005555B8BF6D420CDD2C4480EA020281EA6A
:10346000030382EA000083EA010180EA020281EAA2
:103470000303362D88BF30BD11F0004F4FEA0131F4
:103480004FF4801C4CEA113102D0404261EB410103
:1034900013F0004F4FEA03334CEA133302D0524289
:1034A00063EB430394EA050F00F0A780A4F1010445
:1034B000D5F1200E0DDB02FA0EFC22FA05F280187F
:1034C00041F1000103FA0EF2801843FA05F3594165
:1034D0000EE0A5F120050EF1200E012A03FA0EFCE4
:1034E00028BF4CF0020C43FA05F3C01851EBE3710E
:1034F00001F0004507D54FF0000EDCF1000C7EEB2B
:1035000000006EEB0101B1F5801F1BD3B1F5001F68
:103510000CD349085FEA30004FEA3C0C04F1010487
:103520004FEA445212F5800F80F09A80BCF1004FB0
:1035300008BF5FEA500C50F1000041EB045141EA32
:10354000050130BD5FEA4C0C404141EB010111F433
:10355000801FA4F10104E9D191F0000F04BF0146DE
:103560000020B1FA81F308BF2033A3F10B03B3F1BC
:1035700020020CDA0C3208DD02F1140CC2F10C024C
:1035800001FA0CF021FA02F10CE002F11402D8BFAA
:10359000C2F1200C01FA02F120FA0CFCDCBF41EA76
:1035A0000C019040E41AA2BF01EB0451294330BD45
:1035B0006FEA04041F3C1CDA0C340EDC04F1140422
:1035C000C4F1200220FA04F001FA02F340EA0300F9
:1035D00021FA04F345EA030130BDC4F10C04C4F13F
:1035E000200220FA02F001FA04F340EA030029461F
:1035F00030BD21FA04F0294630BD94F0000F83F469
:10360000801306BF81F480110134013D4EE77FEA4B
:10361000645C18BF7FEA655C29D094EA050F08BF97
:1036200090EA020F05D054EA000C04BF1946104678
:1036300030BD91EA030F1EBF0021002030BD5FEABC
:10364000545C05D14000494128BF41F0004130BDE4
:1036500014F580043CBF01F5801130BD01F0004538
:1036600045F0FE4141F470014FF0000030BD7FEAAB
:10367000645C1ABF194610467FEA655C1CBF0B46A6
:10368000024650EA013406BF52EA033591EA030FBD
:1036900041F4002130BD00BF90F0000F04BF0021B5
:1036A000704730B54FF4806404F132044FF00005E8
:1036B0004FF0000150E700BF90F0000F04BF002161
:1036C000704730B54FF4806404F1320410F00045C7
:1036D00048BF40424FF000013EE700BF42004FEAC2
:1036E000E2014FEA31014FEA02701FBF12F07F433F
:1036F00093F07F4F81F06051704792F0000F14BF3C
:1037000093F07F4F704730B54FF4607401F000457F
:1037100021F0004120E700BF50EA010208BF7047D6
:1037200030B54FF000050AE050EA010208BF7047CB
:1037300030B511F0004502D5404261EB41014FF434
:10374000806404F132045FEA915C3FF4DCAE4FF038
:1037500003025FEADC0C18BF03325FEADC0C18BF1F
:10376000033202EBDC02C2F1200300FA03FC20FA70
:1037700002F001FA03FE40EA0E0021FA02F11444BD
:10378000C1E600BF70B54FF0FF0C4CF4E06C1CEAD2
:1037900011541DBF1CEA135594EA0C0F95EA0C0F47
:1037A00000F0DEF82C4481EA030621EA4C5123EABA
:1037B0004C5350EA013518BF52EA033541F48011E9
:1037C00043F4801338D0A0FB02CE4FF00005E1FB9C
:1037D00002E506F00042E0FB03E54FF00006E1FBE6
:1037E00003569CF0000F18BF4EF0010EA4F1FF0429
:1037F000B6F5007F64F5407404D25FEA4E0E6D4169
:1038000046EB060642EAC62141EA55514FEAC52079
:1038100040EA5E504FEACE2EB4F1FD0C88BFBCF5F5
:10382000E06F1ED8BEF1004F08BF5FEA500E50F1A6
:10383000000041EB045170BD06F0004646EA01016C
:1038400040EA020081EA0301B4EB5C04C2BFD4EB9E
:103850000C0541EA045170BD41F480114FF0000E97
:10386000013C00F3AB8014F1360FDEBF002001F005
:10387000004170BDC4F10004203C35DA0C341BDC7F
:1038800004F11404C4F1200500FA05F320FA04F051
:1038900001FA05F240EA020001F0004221F0004185
:1038A00010EBD37021FA04F642EB06015EEA430EF8
:1038B00008BF20EAD37070BDC4F10C04C4F1200528
:1038C00000FA04F320FA05F001FA04F240EA0200DB
:1038D00001F0004110EBD37041F100015EEA430EAC
:1038E00008BF20EAD37070BDC4F1200500FA05F2CC
:1038F0004EEA020E20FA04F301FA05F243EA02034B
:1039000021FA04F001F0004121FA04F220EA020059
:1039100000EBD3705EEA430E08BF20EAD37070BD9F
:1039200094F0000F0FD101F00046400041EB01017F
:1039300011F4801F08BF013CF7D041EA060195F061
:10394000000F18BF704703F00046520043EB03031B
:1039500013F4801F08BF013DF7D043EA0603704708
:1039600094EA0C0F0CEA135518BF95EA0C0F0CD013
:1039700050EA410618BF52EA4306D1D181EA030159
:1039800001F000414FF0000070BD50EA410606BF53
:103990001046194652EA430619D094EA0C0F02D198
:1039A00050EA013613D195EA0C0F05D152EA0336DD
:1039B0001CBF104619460AD181EA030101F00041FB
:1039C00041F0FE4141F470014FF0000070BD41F044
:1039D000FE4141F4780170BD70B54FF0FF0C4CF41E
:1039E000E06C1CEA11541DBF1CEA135594EA0C0F3D
:1039F00095EA0C0F00F0A7F8A4EB050481EA030E8A
:103A000052EA03354FEA013100F088804FEA033370
:103A10004FF0805545EA131343EA12634FEA02223E
:103A200045EA111545EA10654FEA00260EF00041FF
:103A30009D4208BF964244F1FD0404F5407402D251
:103A40005B084FEA3202B61A65EB03055B084FEAE2
:103A500032024FF480104FF4002CB6EB020E75EBDF
:103A6000030E22BFB61A754640EA0C005B084FEA07
:103A70003202B6EB020E75EB030E22BFB61A754684
:103A800040EA5C005B084FEA3202B6EB020E75EBCF
:103A9000030E22BFB61A754640EA9C005B084FEA47
:103AA0003202B6EB020E75EB030E22BFB61A754654
:103AB00040EADC0055EA060E18D04FEA051545EA43
:103AC00016754FEA06164FEAC30343EA52734FEAEC
:103AD000C2025FEA1C1CC0D111F4801F0BD141EA65
:103AE00000014FF000004FF0004CB6E711F4801FCA
:103AF00004BF01430020B4F1FD0C88BFBCF5E06FAA
:103B00003FF6AFAEB5EB030C04BFB6EB020C5FEAB9
:103B1000500C50F1000041EB045170BD0EF0004E0E
:103B20004EEA113114EB5C04C2BFD4EB0C0541EA40
:103B3000045170BD41F480114FF0000E013C90E63D
:103B400045EA060E8DE60CEA135594EA0C0F08BF01
:103B500095EA0C0F3FF43BAF94EA0C0F0AD150EA00
:103B600001347FF434AF95EA0C0F7FF425AF104693
:103B700019462CE795EA0C0F06D152EA03353FF4BB
:103B8000FDAE1046194622E750EA410618BF52EA38
:103B900043067FF4C5AE50EA41047FF40DAF52EA0C
:103BA00043057FF4EBAE12E74FF0FF3C06E000BFA9
:103BB0004FF0010C02E000BF4FF0010C4DF804CDB6
:103BC0004FEA410C7FEA6C5C4FEA430C18BF7FEA76
:103BD0006C5C1BD001B050EA410C0CBF52EA430CA4
:103BE00091EA030F02BF90EA020F0020704710F124
:103BF000000F91EA030F58BF994208BF90422CBFB3
:103C0000D8176FEAE37040F0010070474FEA410CAB
:103C10007FEA6C5C02D150EA013C07D14FEA430CC9
:103C20007FEA6C5CD6D152EA033CD3D05DF8040B3A
:103C3000704700BF8446104662468C46194663466C
:103C400000E000BF01B5FFF7B7FF002848BF10F143
:103C5000000F01BD4DF808EDFFF7F4FF0CBF012088
:103C600000205DF808FB00BF4DF808EDFFF7EAFF04
:103C700034BF012000205DF808FB00BF4DF808EDBF
:103C8000FFF7E0FF94BF012000205DF808FB00BFB4
:103C90004DF808EDFFF7CEFF94BF012000205DF83E
:103CA00008FB00BF4DF808EDFFF7C4FF34BF01204B
:103CB00000205DF808FB00BF4FEA410C7FEA6C5C16
:103CC00002D150EA013C0AD14FEA430C7FEA6C5C16
:103CD00002D152EA033C02D14FF0000070474FF08E
:103CE000010070474FEA410212F5001215D211D5BA
:103CF0006FF47873B3EB625212D94FEAC12343F0E9
:103D0000004343EA505311F0004F23FA02F018BF6A
:103D1000404270474FF00000704750EA013005D133
:103D200011F0004008BF6FF0004070474FF00000F6
:103D3000704700BF53B94AB9002908BF00281CBF0B
:103D40004FF0FF314FF0FF3000F07AB9ADF1080CC1
:103D50006DE904CE00F006F8DDF804E0DDE90223A9
:103D600004B070472DE9F0478C460D460446089E86
:103D7000002B51D18A4217466DD9B2FA82FEBEF1AC
:103D8000000F0BD0CEF1200C01FA0EF520FA0CFC3E
:103D900002FA0EF74CEA050C00FA0EF44FEA174A45
:103DA000250CBCFBFAF81FFA87F90AFB18CC45EA88
:103DB0000C4508FB09F3AB420AD9ED1908F1FF32B3
:103DC00080F02381AB4240F22081A8F102083D44FB
:103DD000ED1AA4B2B5FBFAF00AFB105544EA05440B
:103DE00000FB09F9A14509D9E41900F1FF3380F07E
:103DF0000A81A14540F2078102383C44A4EB090442
:103E000040EA08400021002E61D024FA0EF400237D
:103E100034607360BDE8F0878B4207D9002E54D020
:103E2000002186E821000846BDE8F087B3FA83F157
:103E3000002940F08E80AB4202D3824200F2FA8029
:103E4000841A65EB03050120AC46002E3FD086E8BE
:103E50001010BDE8F08712B90127B7FBF2F7B7FAE7
:103E600087FEBEF1000F34D1EB1B3A0C1FFA87FC22
:103E70000121B3FBF2F8250C02FB183345EA034598
:103E80000CFB08F3AB4207D9ED1908F1FF3002D261
:103E9000AB4200F2D1808046ED1AA3B2B5FBF2F03E
:103EA00002FB105543EA05440CFB00FCA44507D96E
:103EB000E41900F1FF3302D2A44500F2B88018469D
:103EC000A4EB0C0440EA08409DE731463046BDE8CB
:103ED000F087CEF1200405FA0EF307FA0EF720FA68
:103EE00004F83A0C25FA04F448EA0308B4FBF2F1AA
:103EF0004FEA184502FB11441FFA87FC45EA0445C6
:103F000001FB0CF3AB4200FA0EF409D9ED1901F1F3
:103F1000FF3080F08A80AB4240F2878002393D4416
:103F2000EB1A1FFA88F5B3FBF2F002FB103345EAF7
:103F3000034500FB0CF3AB4207D9ED1900F1FF3844
:103F40006FD2AB426DD902383D44EB1A40EA0141D1
:103F50008FE7C1F1200722FA07F88B4005FA01F438
:103F600048EA030320FA07FE4FEA134CFD404EEAED
:103F7000040EB5FBFCF94FEA1E440CFB19551FFA61
:103F800083F844EA054509FB08F4AC4202FA01F261
:103F900000FA01FA08D9ED1809F1FF3043D2AC421A
:103FA00041D9A9F102091D442D1B1FFA8EFEB5FB54
:103FB000FCF00CFB10554EEA054400FB08F8A04548
:103FC00007D9E41800F1FF3529D2A04527D90238D6
:103FD0001C4440EA0940A4EB0804A0FB02894C45BC
:103FE000C6464D4615D312D056B1BAEB0E0364EB5C
:103FF000050404FA07F7CB401F43CC4037607460D8
:104000000021BDE8F0871846F8E69046E0E6C24594
:10401000EAD2B8EB020E69EB03050138E4E7284663
:10402000D7E7404691E78146BEE7014678E7023888
:104030003C4445E7084608E7A8F102083D442BE761
:10404000704700BF70B539B105460C4608B1836BA7
:1040500083B3B4F90C3013B90026304670BD214645
:10406000284600F037F8E36A064633B1E16928468E
:1040700098470028B8BF4FF0FF36A3891B061CD411
:10408000216B41B104F14003994202D0284600F06F
:1040900043FA00232363616C21B1284600F03CFA07
:1040A0000023636400F0CCF90023A38100F0CAF977
:1040B000304670BD00F0C0F9CBE72169284600F01A
:1040C0002BFADDE7024B01461868FFF7BBBF00BFC4
:1040D00040000010B1F90C309AB22DE9F0410D46C4
:1040E000110780463AD46A6843F40063002AAB8122
:1040F0006FDDAC6A002C49D000229BB2D8F800607A
:10410000C8F8002013F4805267D02A6D5F0705D5E8
:1041100069682B6B521A0BB1EB6BD21A0023E96959
:104120004046A047441C3CD0B5F90C302A692A60AF
:1041300023F400630022AB81DB046A6047D4296B5F
:10414000C8F8006011B305F14003994202D040461F
:1041500000F0E2F900202863BDE8F0812E69AEB1DD
:104160002C682E6091070CBF6B690023A41BAB6009
:104170000AE0234632466F6AE9694046B84700289C
:10418000A4EB0004064404DD002CF2DC0020BDE8B2
:10419000F081AB8943F04003AB814FF0FF30BDE8C5
:1041A000F081D8F800401D2CF3D8194BE340DB43D5
:1041B00013F00103EDD1B5F90C206B6022F400631C
:1041C0002969AB81DA042960B9D5002CB7D12865FB
:1041D000B5E7EA6B002A8CDCD8E70123E9694046A1
:1041E000A047431C024602D0AB89AC6A8EE7D8F8E0
:1041F0000030002BF8D01D2B01D0162B02D1C8F8AF
:104200000060C3E7AB8943F04003AB81BDE8F081B8
:104210000100402010B5044682B008B1836B53B151
:10422000B1F90C0008B902B010BD204602B0BDE8DB
:104230001040FFF74FBF019100F0FEF80199EFE742
:1042400020B1054B01461868FFF7E4BF034B044952
:10425000186800F06DBA00BF40000010A89F001A57
:104260001542001A00207047014900F061BA00BFF2
:104270004540001A2DE9F04F354B4568C3630024D3
:10428000074600F53B7204230321C0F8E412C0F88E
:10429000E822C0F8E04283B02C606C60AC606C66D1
:1042A000EC812C616C61AC61AB81214605F15C0055
:1042B000082200F0D3FDBE68DFF898B0DFF898A0C0
:1042C000DFF89890DFF89880C5F820B00123092224
:1042D000C5F824A0C5F82890C5F82C80ED612146CA
:1042E000F381B28106F15C0034607460B46074667E
:1042F00034617461B4610822019300F0AFFDFD6880
:10430000F66112200222C6F820B0C6F824A0C6F832
:104310002890C6F82C802146A881EA812C606C6028
:10432000AC606C662C616C61AC6105F15C000822CC
:1043300000F094FD019BED61C5F820B0C5F824A004
:10434000C5F82890C5F82C80BB6303B0BDE8F08F9A
:104350006942001AC14F001AE94F001A2550001A8D
:104360004550001A0020704770B54A1E682505FBAD
:1043700002F50E4605F1740100F02CFA044640B136
:1043800000210C30666005F168022160A06000F039
:1043900065FD204670BD00BF214B70B51D68AB6B3D
:1043A0000646002B2CD005F538756B68AC68013BD0
:1043B00005D521E0013B5A1C04F168041CD0B4F976
:1043C0000C20002AF6D100254FF6FF720123E2816E
:1043D000A38165662560A560656025616561A5614D
:1043E0002946082204F15C0000F038FD256365636E
:1043F0006564A564204670BD286828B10546D4E7E9
:104400002846FFF737FFCEE704213046FFF7ACFF21
:1044100028600028F2D10C2304463360EAE700BF8D
:10442000A89F001A024B0349186800F081B900BF29
:10443000A89F001A4540001A836B03B1704719E723
:10444000704700BF704700BF704700BF704700BF94
:10445000024B0349186800F045B900BF4000001046
:104460006543001A024B0349186800F03BB900BFCE
:10447000400000106542001AF8B5244F0C4606466D
:1044800000F03AFDBB685D68C4F57E610F3125F030
:104490000305294421F47F6121F00F01A1F5805427
:1044A000B4F5805F07DB00213046FCF7C3F8BB683A
:1044B0002B44984204D0304600F020FD0020F8BD87
:1044C00061423046FCF7B6F801300DD0104BBA68A7
:1044D00019682D1B45F001053046091B5560196010
:1044E00000F00CFD0120F8BD00213046FCF7A2F8D9
:1044F000BA68831A0F2BDEDD064C0549246843F0A9
:104500000103001B53600860D5E700BF7004001072
:104510005033001078080010002944D02DE9F041F4
:104520000D46804600F0E8FC55F8047C694927F008
:104530000103A5F10804E2188E685068B24220F029
:1045400003005ED0FE0750600BD455F8087CE41BD6
:1045500001F1080EA56875453B446DD0E768EF6032
:10456000BD6015186D68ED073ED543F0010262602D
:10457000E350B3F5007F17D2DB08581C9A104D6842
:1045800051F83070A7600123934001EBC0022B4328
:10459000083AE2604B6041F83040FC604046BDE8BC
:1045A000F04100F0ABBC70475A0A042A52D89A096D
:1045B00002F13907FF0002F13805C819CA59083855
:1045C00090424FD0516821F003018B4232D2926861
:1045D0009042F7D1C368A060E3609C60C46040462D
:1045E000BDE8F04100F08ABC95683B4FBD420344F2
:1045F00040D0D068E86043F0010285606260E3501B
:10460000B7E7FF07034407D455F8082CA41A13444E
:10461000A068E268C2609060304A126843F001000E
:10462000934260608C60B9D32D4B40461968FFF708
:1046300023FFB3E71046CDE711184968C90744D4F2
:104640009168D268CA60034443F0010091606060E1
:10465000E350A3E7142A16D802F15C07FF0002F129
:104660005B05AAE7AA1001234D6893402B434B60DA
:104670000346B0E743F001024C610C61E560A560C0
:104680006260E3508AE7542A06D81A0B02F16F07DA
:10469000FF0002F16E0590E7B2F5AA7F06D8DA0BAB
:1046A00002F17807FF0002F1770586E740F25450E7
:1046B000824206D89A0C02F17D07FF0002F17C05C8
:1046C0007BE74FF47E777E2577E743F00101616059
:1046D000136063E770040010780400107C08001079
:1046E0004C3300102DE9F04110F538771BD0884687
:1046F00000267D68BC68013D0FD4A389012B05F11C
:10470000FF3506D9B4F90E300133204601D0C04739
:1047100006436B1C04F16804EFD13F68002FE8D119
:104720003046BDE8F0813E463046BDE8F08100BF2E
:104730002DE9F84310F538771FD0884606464FF02C
:1047400000097D68BC68013D11D4A389012B05F1E6
:10475000FF3508D9B4F90E3001332146304602D076
:10476000C04749EA00096B1C04F16804EDD13F68B9
:10477000002FE6D14846BDE8F883B9464846BDE873
:10478000F88300BF70B50F4E0F4D761BB61018BFE3
:10479000002405D0013455F8043B9847A642F9D1CE
:1047A0000A4E0B4D761BFBF7F0FEB61018BF002427
:1047B00006D0013455F8043B9847A642F9D170BDA4
:1047C00070BD00BF78A1001A78A1001A7CA1001A60
:1047D00078A1001A2DE9F04F01F10B06162E83B0D7
:1047E000054640F29E8036F0070600F1BD80B142DA
:1047F00000F2BA8000F080FBB6F5FC7FC0F08F823B
:10480000730A00F0B880042B00F27D81B30903F134
:10481000390003F1380EC300C14F3B44A3F1080136
:104820005C68A14206D10CE0002A80F2AA80E4680C
:10483000A14206D0636823F003039A1B0F2AF3DD1D
:1048400070463C69DFF8DCE2744500F0A7816368DC
:1048500023F003039A1B0F2A00F38C81002AC7F868
:1048600014E0C7F810E080F29D80B3F5007F80F07F
:104870005D81DB0803F1010C99107A6857F83C80E0
:10488000C4F8088001238B4007EBCC01134308399F
:10489000E1607B6047F83C40C8F80C40821001247E
:1048A00094409C4200F28B801C4206D120F0030011
:1048B00064001C4200F10400FAD007EBC009CC46AA
:1048C0008046DCF80C309C4507D169E1002A80F273
:1048D0007781DB689C4500F06381596821F0030112
:1048E0008A1B0F2AF2DDD3F80CC0D3F8088001939D
:1048F0009C19284646F0010642F001055E60C8F8A2
:104900000CC0CCF808807C613C61C4F80CE0C4F8B1
:1049100008E065605A5000F0F1FA019B03F10804C9
:104920001EE0102920D800F0E7FA102618230220F4
:104930007B4F3B44A3F108025C68944200F039814C
:104940006368E168A66823F00303234428465A6895
:10495000F16042F001028E605A6000F0CFFA083434
:10496000204603B0BDE8F08F00240C2320462B60C6
:1049700003B0BDE8F08F40204FF400734FF03F0EBE
:104980004AE72344E1685A68A66842F00102F160F0
:1049900028468E605A6000F0B1FA0834204603B011
:1049A000BDE8F08F234428465A6842F001025A605D
:1049B00000F0A4FA0834204603B0BDE8F08FBC68CC
:1049C000636823F00309B14504D3A9EB06030F2B59
:1049D00000F38980DFF850A1D7F80824DAF8003016
:1049E000013204EB090B06EB030800F0508108F5D7
:1049F000805808F10F0828F47F6828F00F08414616
:104A00002846FBF717FE421C034600F0F68083455C
:104A100000F2F180DAF804204244CAF8042000F0E1
:104A20004781D7F8081401311BBFA3EB0B0B5A4485
:104A3000C7F80834CAF8042013F0070200F00D810B
:104A4000C2F10801C2F580520B4408329844C8F301
:104A50000B08A2EB0808414628460193FBF7EAFD44
:104A6000431C019B00F03E81C11A414441F0010109
:104A7000DAF80420BB604244BC425960CAF8042002
:104A800016D0B9F10F0F40F2F4806168A9F10C0360
:104A900023F00703E01801F001014FF0050E194360
:104AA0000F2B6160C0F804E0C0F808E000F212814A
:104AB000DAF82C30BC689A42DAF8303088BFCAF88D
:104AC0002C209A4288BFCAF83020626822F0030284
:104AD0009642A2EB060301D80F2B04DC284600F017
:104AE0000DFA00243CE7A21943F0010346F0010649
:104AF00066602846BA60536000F000FA0834204629
:104B000003B0BDE8F08F142B69D9542B00F29B80C1
:104B1000330B03F16F0003F16E0EC3007CE600BFA0
:104B200070040010780400104C3300105A0A042A54
:104B30005BD9142A00F2AE8002F15C01C9005B323D
:104B400007EB010C7958ACF1080C8C4500F088801B
:104B50004A6822F00302934273D289688C45F7D1E8
:104B6000DCF80C207B68E260C4F808C09460CCF8E4
:104B70000C4093E6A11946F0010C42F00106C4F87E
:104B800004C0284679613961C1F80CE0C1F808E039
:104B90004E60E25000F0B2F90834E1E67B687DE651
:104BA00008F1010818F0030F0CF1080C7FF489AE2E
:104BB0002DE0DC68A34208BF02303FF442AEBFE6FE
:104BC00019441C464A68DB6854F8086F42F0010239
:104BD0004A602846F3609E6000F090F9C0E603F159
:104BE0005C0003F15B0EC30016E69A0902F139017D
:104BF000C9003832A4E7BC4254D0BC68626822F0D5
:104C0000030265E759F80839994540F0868010F0AD
:104C1000030F00F1FF30F5D17B6823EA04037B60CA
:104C200064009C423FF6CBAE002C3FF4C8AE1C4261
:104C300040467FF442AE64001C4200F10400FAD00A
:104C40003BE68C468CE7B3F5AA7F15D8F30B03F14E
:104C5000780003F1770EC300DEE54FF48052F5E6ED
:104C60007B689210012101FA02F213437B606246D5
:104C700079E701225A6031E740F25452934223D837
:104C8000B30C03F17D0003F17C0EC300C4E508F111
:104C90001008B4E6542A29D81A0B02F16F01C90092
:104CA0006E324DE7DAF804204244CAF80420B8E630
:104CB000CBF30B0100297FF4B4AE09EB0803B9680C
:104CC00043F001034B60F3E67F204FF47E734FF017
:104CD0007E0EA1E504F108012846FFF71DFCDAF875
:104CE0000420E5E601214FF00008C1E6B2F5AA7FF5
:104CF00005D8DA0B02F17801C900773220E740F2DB
:104D000054518A4205D89A0C02F17D01C9007C32C7
:104D100016E74FF47E717E2212E77B6880E7F00889
:104D200006F1080304E600BF844641EA000313F0DD
:104D300003036DD1403A41D351F8043B40F8043BA2
:104D400051F8043B40F8043B51F8043B40F8043B65
:104D500051F8043B40F8043B51F8043B40F8043B55
:104D600051F8043B40F8043B51F8043B40F8043B45
:104D700051F8043B40F8043B51F8043B40F8043B35
:104D800051F8043B40F8043B51F8043B40F8043B25
:104D900051F8043B40F8043B51F8043B40F8043B15
:104DA00051F8043B40F8043B51F8043B40F8043B05
:104DB00051F8043B40F8043B403ABDD2303211D3A5
:104DC00051F8043B40F8043B51F8043B40F8043BE5
:104DD00051F8043B40F8043B51F8043B40F8043BD5
:104DE000103AEDD20C3205D351F8043B40F8043BA5
:104DF000043AF9D2043208D0D2071CBF11F8013BA3
:104E000000F8013B01D30B8803806046704700BF68
:104E1000082A13D38B078DD010F003038AD0C3F177
:104E20000403D21ADB071CBF11F8013B00F8013B59
:104E300080D331F8023B20F8023B7BE7043AD9D318
:104E4000013A11F8013B00F8013BF9D20B780370ED
:104E50004B7843708B7883706046704770B48607D8
:104E600046D0541E002A41D0CAB2034602E014F1D3
:104E7000FF343BD303F8012B9D07F8D1032C2ED927
:104E8000CDB245EA05250F2C45EA054519D903F1B0
:104E900010022646103E0F2E42F8105C42F80C5CC1
:104EA00042F8085C42F8045C02F11002F2D8A4F166
:104EB000100222F00F0204F00F041032032C1344EE
:104EC0000DD91E462246043A032A46F8045BFAD856
:104ED000221F22F003020432134404F003042CB115
:104EE000C9B21C4403F8011B9C42FBD170BC704743
:104EF00014460346C2E700BF704700BF704700BFBB
:104F00000EB400B582B003AB816853F8042B019353
:104F100000F026F902B05DF804EB03B0704700BF63
:104F20000FB400B5074983B004AB086853F8042BED
:104F30008168019300F014F903B05DF804EB04B04C
:104F4000704700BF40000010F0B5054689B0084624
:104F50000C4600F095F8AB6B144F04940126441CEA
:104F600004A9022203940590AC6806970796019164
:104F70000292B3B1B4F90C309A0406D4626E43F4D1
:104F8000005322F40052A38162662146284601AAFA
:104F900002F0B8FB002814BF4FF0FF300A2009B020
:104FA000F0BD2846FFF748FAE4E700BF549C001A1A
:104FB000024B01461868FFF7C7BF00BF4000001052
:104FC00010B50C46B1F90E10FBF7F8FA002803DB18
:104FD000236D0344236510BDA38923F48053A3816B
:104FE00010BD00BF002070472DE9F0411646B1F911
:104FF0000C201F46D3050C46054607D50022022388
:10500000B1F90E10FBF7D5FAB4F90C20B4F90E1073
:1050100022F48052A2813B4632462846BDE8F04148
:10502000FBF7F4BA10B50C46B1F90E10FBF7C1FA54
:10503000A389421C0EBF23F4805343F480532065A0
:10504000A38110BDB1F90E10FBF7A0BAFFFFFFFF5F
:10505000FFFFFFFFFFFFFFFFFFFFFFFFFFFFFFFF60
:10506000FFFFFFFFFFFFFFFFFFFFFFFFFFFFFFFF50
:10507000FFFFFFFFFFFFFFFFFFFFFFFFFFFFFFFF40
:1050800090F800F06DE9024520F007016FF0000C88
:1050900010F0070491F820F040F049804FF0000430
:1050A0006FF00700D1E9002391F840F000F108000B
:1050B00082FA4CF2A4FA8CF283FA4CF3A2FA8CF343
:1050C0004BBBD1E9022382FA4CF200F10800A4FAAA
:1050D0008CF283FA4CF3A2FA8CF3E3B9D1E90423FE
:1050E00082FA4CF200F10800A4FA8CF283FA4CF335
:1050F000A2FA8CF37BB9D1E9062301F1200182FAEF
:105100004CF200F10800A4FA8CF283FA4CF3A2FAF4
:105110008CF3002BC6D0002A04BF04301A4612BA02
:10512000B2FA82F2FDE8024500EBD2007047D1E905
:10513000002304F00305C4F100004FEAC50514F094
:10514000040F91F840F00CFA05F562EA05021CBF65
:1051500063EA050362464FF00004A9E7FFFFFFFF83
:105160002DE9F04FBFB01D468A4691460446069091
:1051700002F070FC036812931846FFF781FF0A954E
:1051800010901CB1A36B002B00F02081BAF90C2009
:1051900093B298040AD4DAF8641042F4005321F46C
:1051A0000051AAF80C30CAF864109BB2190740F1FC
:1051B000E480DAF81020002A00F0DF8003F01A0300
:1051C0000A2B00F0E8809FED847B00238DED0E7BA1
:1051D0000D93239322931193139307932EAB219353
:1051E0009846CDF814A099F800304C46EBB1252B29
:1051F00002D11AE0252B03D014F8013F002BF9D17E
:10520000A4EB09058DB1229B239AC8F800900133C5
:105210002A44072BC8F804502392229300F3CB8032
:1052200008F10808079B2B4407932378002B00F014
:10523000D58300231A468DF86730194608939B469C
:1052400066784FF0FF3304F10109049309F1010975
:10525000A6F12003582B00F29883DFE813F09A029E
:10526000960396039103960396039603960396037B
:1052700096037E038C0396038900B6029603A2026E
:10528000A702A702A702A702A702A702A702A702D6
:10529000A702960396039603960396039603960336
:1052A0009603960396035502E2029603E2029603E2
:1052B0009603960396032B03960396036F009603BB
:1052C0009603960396039603590096039603780374
:1052D0009603960396039603960396039603960306
:1052E000960396035C037203E202E202E2023003D9
:1052F0007203960396033503960342037100D102AD
:1053000057039603C10096035B00960396030302BE
:105310004BF0100B1BF0200F40F065860A9A1BF033
:10532000100F134640F044831BF0400F00F0408301
:1053300014880432002501230A92BAE14BF0100BC5
:105340001BF0200340F05B861BF0100240F0368318
:105350001BF0400300F032830A9913460A460432D8
:105360000C880A920025A4E108980A93404208900C
:105370004BF0040B99F8006068E75146069801F07D
:10538000A3F9002840F03883BAF80C3003F01A0370
:105390000A2B7FF418AFBAF90E30002BFFF613AFCB
:1053A0002B464A465146069801F058F9079007984F
:1053B0003FB0BDE8F08F21AA0599069803F05EFC86
:1053C000002840F031840DF1B8082BE70698FFF76C
:1053D00033F8DBE6AFF300800000000000000000BF
:1053E0000A9A176800248DF86740151D002F00F0F9
:1053F000E787049A531C00F049872146384602F09B
:10540000AFFB002801F04680C31B099304940A9562
:10541000CDF808B023EAE3739DF867A003930C94DA
:10542000BAF1000F02D0039B01330393029B13F0E8
:1054300002030B9302D0039B02330393029B13F0EE
:10544000840540F0C982089B039AA3EB020BBBF1D1
:10545000000F40F3C182BBF1100F2399229A28DD7F
:1054600043461024A846DDF818A0059D06E0ABF1E0
:10547000100BBBF1100F03F1080318DD01329F4838
:1054800022921031072A239183E81100EFDD21AA2F
:105490002946504603F0F2FB002840F01183ABF19F
:1054A000100BBBF1100F2399229A2EABE6DC454678
:1054B00098460132914B22920BEB0104072A239468
:1054C00088E8080800F373849DF867A008F10808CD
:1054D000BAF1000F0ED0229B013301340DF16701A8
:1054E0000122072B2394229388E8060000F3B68359
:1054F00008F108080B9B6BB1229B013302341AA9F7
:105500000222072B2394229388E8060000F3B1833C
:1055100008F10808802D00F0E982049B099AA3EBAA
:10552000020ABAF1000F3BDDBAF1100F229B744D55
:105530002BDD42462146B0464FF0100B2E46069C0E
:10554000059D06E0AAF1100ABAF1100F02F1080257
:1055500017DD01331031072B2391229382E8400895
:10556000F0DD21AA2946204603F088FB002840F000
:10557000A782AAF1100ABAF1100F2399229B2EAA32
:10558000E7DC35460C464646904601335444072B2B
:105590002394229388E8200400F3558308F1080837
:1055A000029BDB0500F12C82229B0999C8F8007050
:1055B00001330C44072B2394C8F80410229300F302
:1055C000218308F10808029B5A073BD5089B039AE0
:1055D0009D1A002D36DD102D229B21DD1026069F01
:1055E000DDF814A004E0103D102D08F1080817DDC7
:1055F0000133424A22931034072B239488E8440055
:10560000F1DD21AA5146384603F038FB002840F06E
:10561000EE81103D102D239C229B0DF1B808E7DC94
:105620000133364A22932C44072B239488E8240024
:1056300008DD21AA0599069803F020FB002840F018
:10564000F382239C079B089A03998A42ACBF9B185C
:105650005B180793002C40F0DF82002322930DF1AA
:10566000B808C0E5002A40F0E287264B11931BF0F2
:10567000200F40F0A0840A9A1BF0100F134640F050
:10568000D0831BF0400F00F0CC83043314880A93BE
:1056900000251BF0010F00F01E8354EA050300F003
:1056A0001A8330238DF868308DF869604BF0020B57
:1056B00002234FF0000A8DF867A004994A1C48D0D5
:1056C0002BF08002029254EA050248D1002940F0F2
:1056D000AE82002B40F067831BF00103099300F0BA
:1056E0009A843EAF302307F8413D049B099A9342C8
:1056F000B8BF1346039300230C9391E6B09F001AA2
:10570000C09F001AF49F001A002A40F07D874BF0DA
:10571000100B1BF0200F40F059841BF0100F40F0CD
:105720008F831BF0400F00F08B830A99B1F9004082
:105730000431E51722462B460A91002A73F1000333
:10574000C0F2798404999DF867A04A1C4FF00103C8
:10575000B6D154EA050200F06C82CDF808B0012BF6
:1057600000F00483022B40F0938211982EAF23099E
:1057700004F00F0143EA05732A091C461546435CF1
:1057800007F8013D54EA0503F1D12EABDB1B099369
:10579000ABE799F8006000297FF458AD0122202181
:1057A00054E54BF0800B99F800604FE5A6F130030B
:1057B000002019F8016B00EB800003EB4000A6F11C
:1057C0003003092BF5D9089042E599F800602A2E9C
:1057D00009F1010000F00787A6F13003092B81468B
:1057E00098BF002000F2968619F8016B00EB80004C
:1057F00003EB4000A6F13003092BF5D9049027E50F
:105800000A9AB34B146811937826302304328DF82A
:1058100068304BF0020B0A9200258DF86960022374
:1058200047E7002A40F0FF860A9D1BF0080F05F1AC
:10583000070500F0858425F0070393ED007B8DEDCF
:105840000E7B03F108020A92DDE90E1222F00043FA
:1058500014911593DDE914454FF0FF322046294697
:105860009C4BFEF729FA002840F0EF834FF0FF32FF
:10587000984B20462946FEF701FA002840F0E583C0
:1058800000220023DDE90E01FEF7EEF9002840F0CA
:10589000BE859DF867A0904F904B032200212BF00E
:1058A0008000039204910290472ED8BF1F460992B0
:1058B0000C91B5E54BF0080B99F80060C6E44BF08D
:1058C000400B99F80060C1E499F800606C2E03BFAA
:1058D00099F801604BF0200B09F101094BF0100B16
:1058E000B4E4002A40F097861BF0200F40F0858436
:1058F0001BF0100F69D11BF0400F66D00A9A136895
:1059000004320A92BDF81C201A806CE44BF0200B84
:1059100099F800609AE40A99CDF808B00A688DF801
:10592000902000230A469A468DF8673004320123FE
:105930000393CDF810A0CDF830A00A92099324AFBC
:1059400074E5002A3FF4E5AE8DF86710E1E6002A21
:1059500040F06586624B119389E60A9C23680893A0
:1059600018460028234603F10403FFF6FDAC0A9312
:1059700099F800606AE499F8006001222B2165E43F
:105980004BF0010B99F8006060E4002A40F0388683
:1059900026B3002301229A4603928DF89060CDF839
:1059A00008B08DF8673004930C93099224AF3DE55D
:1059B00004321C680A92012300257AE60A990A46F5
:1059C00004320C680A92002573E60A9A13680432BE
:1059D0000A92079A1A6006E4239C79E5239BDDF876
:1059E00014A023B1069821AA514603F047F9BAF84A
:1059F0000C305B067FF5DBAC4FF0FF330793D6E44A
:105A0000652E40F3B78000220023DDE90E01FEF78A
:105A100021F9002800F06181229B324AC8F8002059
:105A2000013301340122072B23942293C8F8042068
:105A300000F39E8308F108081B9B0D9A239C934258
:105A400003DB029BDE077FF5BEAD229B1099129A05
:105A5000C8F8002001330C44072BC8F80410239425
:105A6000229300F3068408F108080D9B5E1E002EA9
:105A70007FF7A9AD102E229B1B4D40F3D781102735
:105A8000DDF818A0DDF814B005E008F10808103EB4
:105A9000102E40F3CB8101331034072B2394229333
:105AA00088E8A000F1DD21AA5946504603F0E6F847
:105AB000002840F0DB83239C229B0DF1B808E6E729
:105AC000AA46BAF80C305B067FF571AC94E700BFCC
:105AD000F49F001AFFFFEF7FD49F001AD09F001A97
