:020000041A00E0
:1000000000800010B508001A7901001A7B01001A5F
:100010007D01001A7F01001A8101001ADA6FFF5377
:100020000000000000000000000000007128001A1D
:100030008501001A000000001129001A7529001A14
:10004000452B001ABB01001ABB01001A000000007A
:10005000BB01001ABB01001ABB01001ABB01001A48
:10006000293C001ABB01001ABB01001ABB01001A8F
:10007000BB01001ABB01001ABB01001ABB01001A28
:10008000BB01001ABB01001ABB01001ABB01001A18
:10009000BB01001ABB01001ABB01001ABB01001A08
:1000A000BB01001ABB01001ABB01001ABB01001AF8
:1000B000BB01001ABB01001ABB01001ABB01001AE8
:1000C0003504001A8104001ACD04001A1905001A1B
:1000D0006505001AB105001AFD05001A4906001A47
:1000E000BB01001ABB01001ABB01001ABB01001AB8
:1000F00000000000BB01001ABB01001ABB01001A7E
:1001000000000000BB01001ABB01001ABB01001A6D
:10011000BB01001A6CAA001A0000001000090000C0
:100120006CAA001A00000810000000006CAA001A57
:1001300000000020000000006CAA001A00800020CF
:10014000000000006CAA001A00C00020000000009F
:1001500000090010502B00000000081000000000F3
:1001600000000020000000000080002000000000CF
:1001700000C0002000000000FEE7FEE7FEE7FEE70B
:10018000FEE7FEE7FEE7FEE7FEE7002393420AD222
:1001900010B404680C600433043004319342F8D383
:1001A0005DF8044B70477047002303E000220260B3
:1001B000043304308B42F9D37047FEE7FFFFFFFFA3
:1001C000FFFFFFFFFFFFFFFFFFFFFFFFFFFFFFFF3F
:1001D000FFFFFFFFFFFFFFFFFFFFFFFFFFFFFFFF2F
:1001E000FFFFFFFFFFFFFFFFFFFFFFFFFFFFFFFF1F
:1001F000FFFFFFFFFFFFFFFFFFFFFFFFFFFFFFFF0F
:10020000FFFFFFFFFFFFFFFFFFFFFFFFFFFFFFFFFE
:10021000FFFFFFFFFFFFFFFFFFFFFFFFFFFFFFFFEE
:10022000FFFFFFFFFFFFFFFFFFFFFFFFFFFFFFFFDE
:10023000FFFFFFFFFFFFFFFFFFFFFFFFFFFFFFFFCE
:10024000FFFFFFFFFFFFFFFFFFFFFFFFFFFFFFFFBE
:10025000FFFFFFFFFFFFFFFFFFFFFFFFFFFFFFFFAE
:10026000FFFFFFFFFFFFFFFFFFFFFFFFFFFFFFFF9E
:10027000FFFFFFFFFFFFFFFFFFFFFFFFFFFFFFFF8E
:10028000FFFFFFFFFFFFFFFFFFFFFFFFFFFFFFFF7E
:10029000FFFFFFFFFFFFFFFFFFFFFFFFFFFFFFFF6E
:1002A000FFFFFFFFFFFFFFFFFFFFFFFFFFFFFFFF5E
:1002B000FFFFFFFFFFFFFFFFFFFFFFFFFFFFFFFF4E
:1002C000FFFFFFFFFFFFFFFFFFFFFFFFFFFFFFFF3E
:1002D000FFFFFFFFFFFFFFFFFFFFFFFFFFFFFFFF2E
:1002E000FFFFFFFFFFFFFFFFFFFFFFFFFFFFFFFF1E
:1002F000FFFFFFFFFFFFFFFFFFFFFFFFFFFFFFFF0E
:10030000F0B5494AD2F8003E23F0FF0343F004035E
:10031000C2F8003E454B196821F0010119604FF009
:10032000010EC3F814E0D2F8001E21F47F4141F41D
:100330008061C2F8001E196821F0020119600227CD
:100340009F60D2F8001E21F47F0141F40021C2F821
:10035000001E196821F00401196004265E61D2F8BC
:10036000001E21F07F4141F00061C2F8001E1968B3
:1003700021F00801196008259D60D2F8041E21F0C3
:10038000FF0141F00901C2F8041E196821F01001B3
:10039000196010245C61D2F8041E21F47F4141F4FD
:1003A0001061C2F8041E196821F020011960202094
:1003B0009860D2F8041E21F47F0141F42411C2F8A0
:1003C000041E196821F0400119604FF0400CC3F879
:1003D00014C0D2F8041E21F07F4141F02451C2F82C
:1003E000041E1A6822F080021A6080219960104B66
:1003F000A02283F82023C3F804E083F821235F6060
:1004000083F822235E6083F823235D6083F824232E
:100410005C6083F82523586083F82623C3F804C062
:1004200083F827235960F0BD006008400070084041
:1004300000E100E000B583B0002301930D4B1B6A7F
:1004400013F0010F0CD1019B3BB14FF080520A4BCE
:100450001A60BFF34F8FBFF36F8F03B05DF804FBDB
:100460000122044B5A6201A9044B586900F08FFE27
:10047000E9E700BF0070084004ED00E09833001089
:1004800000B583B0002301930D4BDB6913F0020F1D
:100490000CD1019B3BB14FF080520A4B1A60BFF365
:1004A0004F8FBFF36F8F03B05DF804FB0222044B44
:1004B0005A6201A9044B586900F069FEE9E700BFE0
:1004C0000070084004ED00E09833001000B583B0E0
:1004D000002301930D4B1B6A13F0040F0CD1019BF9
:1004E0003BB14FF080520A4B1A60BFF34F8FBFF3FE
:1004F0006F8F03B05DF804FB0422044B5A620DEBCE
:100500000201044B186B00F042FEE8E7007008405F
:1005100004ED00E09833001000B583B00023019390
:100520000D4BDB6913F0080F0CD1019B3BB14FF071
:1005300080520A4B1A60BFF34F8FBFF36F8F03B027
:100540005DF804FB0822044B5A6201A9044B186BA6
:1005500000F01DFEE9E700BF0070084004ED00E078
:100560009833001000B583B0002301930D4B1B6A34
:1005700013F0100F0CD1019B3BB14FF080520A4B8E
:100580001A60BFF34F8FBFF36F8F03B05DF804FBAA
:100590001022044B5A6201A9044BD86C00F0F7FDFD
:1005A000E9E700BF0070084004ED00E09833001058
:1005B00000B583B0002301930D4BDB6913F0200FCE
:1005C0000CD1019B3BB14FF080520A4B1A60BFF334
:1005D0004F8FBFF36F8F03B05DF804FB2022044BF5
:1005E0005A6201A9044BD86C00F0D1FDE9E700BFC5
:1005F0000070084004ED00E09833001000B583B0AF
:10060000002301930D4B1B6A13F0400F0CD1019B8B
:100610003BB14FF080520A4B1A60BFF34F8FBFF3CC
:100620006F8F03B05DF804FB4022044B5A6201A9AE
:10063000044B986E00F0ABFDE9E700BF0070084086
:1006400004ED00E09833001000B583B0002301935F
:100650000D4BDB6913F0800F0CD1019B3BB14FF0C8
:1006600080520A4B1A60BFF34F8FBFF36F8F03B0F6
:100670005DF804FB8022044B5A6201A9044B986E7A
:1006800000F085FDE9E700BF0070084004ED00E0E0
:100690009833001030B583B003F0D4FA4FF4E13250
:1006A00003212E4803F004FB002417E0E3B203F11A
:1006B0002400E200121B9100294D0D4468702A337A
:1006C000AB7000220421012000F007FC2861032206
:1006D0000021012000F001FC68610134032CE5DDFC
:1006E000FFF70EFE002400E00134032C16DCC4EBFF
:1006F000C40293001B4A52F8242001920122009266
:10070000174A1344B4221849184801F0ACF90128DB
:10071000EAD1611C164805F059F8E5E7002400E02D
:100720000134032C16DCC4EBC40293000D4A52F8CA
:100730002420019201220092094A1344B4220D4957
:100740000D4801F090F90128EAD1611C0B4805F031
:100750003DF8E5E701F0BAF9FEE700BF0009001037
:100760009833001088330010B4A4001A5908001AF6
:10077000C0A4001AD8A4001A6B08001AE4A4001A36
:1007800008B5064805F06AF84FF0A00383F3118816
:10079000BFF36F8FBFF34F8FFEE700BFFCA4001ABB
:1007A00010B5044601F0E8F9E06010BD10B504464C
:1007B00001F0E2F9A060E368C01A214641F8040F95
:1007C00000234FF0FF32206900F0AEFB10BD002384
:1007D0000370704710B504460378032B37D8DFE861
:1007E00003F0021E10284FF0FF31406900F0DCFDDD
:1007F00001282ED1022323706168164804F0E6FF19
:1008000010BD90F9010003F0DAF910B10023237054
:1008100010BD012323702046FFF7C2FF10BD4FF02B
:10082000FF31406900F0C0FD012812D1032323707D
:1008300010BD90F9010003F0C2F910B90123237033
:1008400010BD002323702046FFF7B0FF10BDFFF757
:10085000BEFF10BD10A5001A10B504462046FFF7D4
:10086000B9FF282001F0F2FAF8E710B582B004468B
:100870004FF4FA73019301F07FF90090002201A96F
:10088000206900F0E3FC01F077F90090012194F970
:10089000020003F05FF9019801F0D8FA002194F901
:1008A000020003F057F901994900684601F078FA0F
:1008B000E4E7704710B572B6194A1A4B1A601A4A23
:1008C00004331A60002305E04FF0FF31174A42F865
:1008D00023100133072BF7D962B6154B07E003F15C
:1008E0000C049A6859681868FFF74FFC2346114AB0
:1008F0009342F4D306E01C46596854F8080BFFF7FE
:1009000053FC23460C4A9342F5D302F0C7FF04F090
:100910008FFBFFF7CEFFFFF7BDFE30BFFDE700BF47
:100920000010DF1000310540FFF7DF0180E200E03A
:100930001401001A5001001A7801001A704770471C
:10094000092303604FF0FF307047582303604FF0D6
:10095000FF307047022901D8012070470923036046
:100960004FF0FF307047582303604FF0FF3070475F
:10097000022920D82DE9F0411D46174606460024DD
:10098000AC4212D202F0DDF9B0F1FF3FF8D004F131
:10099000010838550D2803D00A2801D04446EFE756
:1009A00002F0CFF94046BDE8F081132333604FF0E9
:1009B000FF30BDE8F081132303604FF0FF30704734
:1009C00002290CD870B51D461646002403E0305DA0
:1009D00002F0B2F90134AC42F9D3284670BD1323BA
:1009E00003604FF0FF307047054B1B6823B1044B89
:1009F0001868014419607047024A014B1A60F6E713
:100A00000409001050340010124A12F0070F1ED0D3
:100A1000D11D21F00701C1F5005313440A460E48C9
:100A20000260002141601344083B23F007030B4898
:100A3000036059601960991A51601360084B19607E
:100A4000084B19604FF00042074B1A6070474FF493
:100A50000053E4E70C0900101829001008090010E1
:100A600014290010102900100C29001010B4134B89
:100A70001A6882421BD359685C18A04203D14068AF
:100A800001445960184641684418A24213D10C4CE5
:100A90002468A2420DD05268114441601A6812685D
:100AA0000260984200D018605DF8044B704713460E
:100AB000DEE70460F5E70260F3E700BF18290010E5
:100AC0000809001070B5044601F04EF83C4B1B6855
:100AD000BBB13C4B1B681C4264D1ACB1083414F070
:100AE000070F11D024F00704083404F007035BB1AA
:100AF0004FF0A00383F31188BFF36F8FBFF34F8FC5
:100B0000FEE7FFF781FFE4E7002C4DD02E4B1B687A
:100B10009C424BD82D4B1D6801E02B4615466A6858
:100B2000944202D92A68002AF7D1254A12689542D0
:100B30003ED01E6808362A681A606B681B1B102B93
:100B400010D9281910F0070F08D04FF0A00383F335
:100B50001188BFF36F8FBFF34F8FFEE743606C6068
:100B6000FFF784FF6A6818490B689B1A0B601849E5
:100B700009688B4201D216490B60124B1B68134364
:100B80006B6000232B6001F08DF89EB116F0070F0B
:100B900013D04FF0A00383F31188BFF36F8FBFF31F
:100BA0004F8FFEE70026EEE70026ECE70026EAE797
:100BB0000026E8E7FFF7E4FDE8E7304670BD00BF38
:100BC000080900100C290010102900101829001025
:100BD0001429001080B338B50446A0F1080550F878
:100BE000042C164909680A4208D14FF0A00383F388
:100BF0001188BFF36F8FBFF34F8FFEE750F8080CDB
:100C000040B14FF0A00383F31188BFF36F8FBFF3A0
:100C10004F8FFEE722EA010244F8042C00F0A4FF03
:100C200054F8041C064A13680B4413602846FFF767
:100C30001DFF01F037F838BD704700BF0C290010C8
:100C400010290010436A23B1036B1868C0F1070034
:100C500070470020704710B5044601F01BFEA26BE0
:100C6000E36B9A4204D0002401F036FE204610BD0A
:100C70000124F9E710B5044601F00CFEA36B23B183
:100C8000002401F029FE204610BD0124F9E770B5CB
:100C900004461646856B026C4AB9036853BB40682C
:100CA00001F09EFA002363600135A56370BD6EB943
:100CB000806804F08FFC226CA3681344A360626810
:100CC000934219D32368A3600020EDE7C06804F0C5
:100CD00081FC236C5B42E2681A44E26021688A422C
:100CE00002D262681344E360022E07D145B1013D90
:100CF0000020D9E70020D7E70020D5E70020D3E780
:100D00000020D1E7026C72B110B50346C4681444E8
:100D1000C4604068844201D31868D8600846D96826
:100D200004F058FC10BD704738B5054601F0B2FD1F
:100D300095F8454064B201E0013C64B2002C0ADD44
:100D40006B6A43B105F1240001F042F90028F3D0A9
:100D500001F0D0F9F0E7FF2385F8453001F0BCFD44
:100D600001F098FD95F8444064B201E0013C64B2A2
:100D7000002C0ADD2B6943B105F1100001F028F9C0
:100D80000028F3D001F0B6F9F0E7FF2385F84430EE
:100D900001F0A2FD38BDFFFF38B530B304460D4663
:100DA00001F078FD2168E26B236C03FB02106060A8
:100DB0000020A063A160013A02FB0313E360FF235C
:100DC00084F8443084F84530C5B92369F3B104F19F
:100DD000100001F0FDF8C8B14FF080520D4B1A60C1
:100DE000BFF34F8FBFF36F8F10E04FF0A00383F37B
:100DF0001188BFF36F8FBFF34F8FFEE704F1100030
:100E000000F0E1FB04F1240000F0DDFB01F064FDE3
:100E1000012038BD04ED00E038B51D46049C0B46AA
:100E200049B12260E063236401212046FFF7B4FF4B
:100E300084F84C5038BD2460F4E740B94FF0A0036B
:100E400083F31188BFF36F8FBFF34F8FFEE710B5A9
:100E500084B0044663B1A2B1A9B10120A8B94FF092
:100E6000A00383F31188BFF36F8FBFF34F8FFEE7AB
:100E70004FF0A00383F31188BFF36F8FBFF34F8F41
:100E8000FEE70120EAE70020E8E70AB901B1002007
:100E900040B94FF0A00383F31188BFF36F8FBFF306
:100EA0004F8FFEE7502003900398502808D04FF052
:100EB000A00383F31188BFF36F8FBFF34F8FFEE75B
:100EC00020461C46012384F8463000949DF81830D3
:100ED000FFF7A2FF204604B010BD40B94FF0A003B9
:100EE00083F31188BFF36F8FBFF34F8FFEE7F0B529
:100EF00083B0064611B101FB00F000E00020174668
:100F00000C465030FFF7DEFD054650B1002380F857
:100F1000463000903B4600F1500221463046FFF734
:100F20007BFF284603B0F0BDF0B585B0019260B1FB
:100F3000044699B10125BDB94FF0A00383F3118890
:100F4000BFF36F8FBFF34F8FFEE74FF0A00383F324
:100F50001188BFF36F8FBFF34F8FFEE7026C0AB9A2
:100F60000125E8E70025E6E7022B09D06DB94FF02F
:100F7000A00383F31188BFF36F8FBFF34F8FFEE79A
:100F8000E26B012AF2D00025F0E71E460F4601F081
:100F9000B7F810B9019B03B1002545B94FF0A00384
:100FA00083F31188BFF36F8FBFF34F8FFEE70025E8
:100FB0002CE0324639462046FFF769FE636A8BB162
:100FC00004F1240001F004F838B14FF08052374B9F
:100FD0001A60BFF34F8FBFF36F8F01F07DFC0120CC
:100FE00005B0F0BD0028F8D04FF080522F4B1A60AA
:100FF000BFF34F8FBFF36F8FEFE701F06DFC002061
:10100000EEE72046FFF790FE00F04CFE01F042FCB8
:10101000A26BE36B9A42CCD3022ECAD0019B002B69
:10102000EBD01DB902A801F019F8012501F054FC1C
:1010300000F09AFD01F02EFC94F844305BB2B3F15D
:10104000FF3F02D1002384F8443094F845305BB26E
:10105000B3F1FF3F02D1002384F8453001F03CFC9E
:1010600001A902A801F006F8C8B92046FFF7F3FD70
:101070000028C6D0019904F1100000F075FF204649
:10108000FFF752FE00F00EFE0028BFD14FF0805255
:10109000064B1A60BFF34F8FBFF36F8FB6E7204642
:1010A000FFF742FE00F0FEFD002099E704ED00E0AE
:1010B0002DE9F84360B1044699B10120B8B94FF069
:1010C000A00383F31188BFF36F8FBFF34F8FFEE749
:1010D0004FF0A00383F31188BFF36F8FBFF34F8FDF
:1010E000FEE7006C08B90120E8E70020E6E7022BE4
:1010F00009D068B94FF0A00383F31188BFF36F8F55
:10110000BFF34F8FFEE7E56B012DF2D00020F0E733
:101110001F469046894601F0E7FCEFF311864FF039
:10112000A00383F31188BFF36F8FBFF34F8FA26BC0
:10113000E36B9A4201D3022F21D194F845506DB24E
:101140003A4649462046FFF7A2FDB5F1FF3F10D1D0
:10115000636AB3B104F1240000F03AFF98B1B8F12A
:10116000000F12D00120C8F8000086F31188BDE8F6
:10117000F8836B1C5BB284F845300120F5E7002052
:10118000F3E70120F1E70120EFE70120EDE760B18F
:1011900070B50446036C8BB14FF0A00383F3118844
:1011A000BFF36F8FBFF34F8FFEE74FF0A00383F3C2
:1011B0001188BFF36F8FBFF34F8FFEE7036853B102
:1011C000012373B94FF0A00383F31188BFF36F8F2E
:1011D000BFF34F8FFEE743680BB90123F1E700230C
:1011E000EFE70E4601F080FCEFF311854FF0A0030E
:1011F00083F31188BFF36F8FBFF34F8FA26BE36B45
:101200009A421AD294F845305BB20132A263B3F12C
:10121000FF3F0CD1636A93B104F1240000F0D8FEC3
:1012200078B186B10120306085F3118870BD01333B
:101230005BB284F845300120F6E70020F4E7012096
:10124000F2E70120F0E70120EEE7FFFFF0B585B0FF
:10125000019260B1044699B10125BDB94FF0A003D8
:1012600083F31188BFF36F8FBFF34F8FFEE74FF00B
:10127000A00383F31188BFF36F8FBFF34F8FFEE797
:10128000036C0BB90125E8E70025E6E70E4600F000
:1012900037FF10B9019B03B1002545B94FF0A003FA
:1012A00083F31188BFF36F8FBFF34F8FFEE70027E3
:1012B0002FE031462046FFF725FD013DA563236958
:1012C00063B104F1100000F083FE38B14FF080529A
:1012D000344B1A60BFF34F8FBFF36F8F01F0FCFAEE
:1012E000012005B0F0BD01F0F7FA0020F9E702A8EF
:1012F00000F0B4FE012716E0002384F844301EE01D
:10130000002384F8453020E02046FFF70DFD00F073
:10131000C9FC01F0BFFAA56B002DCAD1019B002BBF
:10132000E1D0002FE3D001F0D7FA00F01DFC01F06E
:10133000B1FA94F844305BB2B3F1FF3FDCD094F8DB
:1013400045305BB2B3F1FF3FDAD001F0C5FA01A935
:1013500002A800F08FFEC8B92046FFF78BFC0028DA
:10136000D2D0019904F1240000F0FEFD2046FFF7E1
:10137000DBFC00F097FC0028CBD14FF08052094BEA
:101380001A60BFF34F8FBFF36F8FC2E72046FFF79E
:10139000CBFC00F087FC2046FFF76CFC0028B8D09F
:1013A00000209EE704ED00E070B584B0019158B1D3
:1013B0000446036C8BB14FF0A00383F31188BFF395
:1013C0006F8FBFF34F8FFEE74FF0A00383F31188B9
:1013D000BFF36F8FBFF34F8FFEE700F091FE60B950
:1013E000019B63B9012363B94FF0A00383F3118814
:1013F000BFF36F8FBFF34F8FFEE70123F3E70023A7
:10140000F1E700252E464EE0013BA363236813B9A4
:1014100000F0A6FF6060236963B104F1100000F0E2
:10142000D7FD38B14FF08052474B1A60BFF34F8F52
:10143000BFF36F8F01F050FA0125284604B070BD4C
:1014400045B14FF0A00383F31188BFF36F8FBFF353
:101450004F8FFEE701F040FAEFE702A800F0FEFD33
:1014600001262AE0002384F8443032E0002384F887
:10147000453034E001F00EFA606800F051FE054698
:1014800001F02AFA3BE02046FFF74EFC00F00AFC90
:1014900009E02046FFF748FC00F004FC2046FFF777
:1014A000E9FB002840D101F0F5F9A36B002BABD18B
:1014B000019B002BC4D0002ECFD001F00DFA00F01C
:1014C00053FB01F0E7F994F844305BB2B3F1FF3F0E
:1014D000C8D094F845305BB2B3F1FF3FC6D001F0FD
:1014E000FBF901A902A800F0C5FD0028D1D12046D2
:1014F000FFF7C0FB0028C6D02368002BBAD00199A3
:1015000004F1240000F030FD2046FFF70DFC00F050
:10151000C9FB0028C7D14FF080520B4B1A60BFF3B4
:101520004F8FBFF36F8FBEE7002D86D001F0B2F969
:101530002046FFF787FB0146606800F0ABFE01F034
:10154000CBF9002579E700BF04ED00E00023072B6D
:101550000CD8074A52F833200AB10133F7E7044A9E
:1015600042F8331002EBC30358607047704700BF66
:101570000834001070B504460D46164601F08AF98D
:1015800094F844305BB2B3F1FF3F0DD094F845308E
:101590005BB2B3F1FF3F0BD001F09EF9A36B5BB1DF
:1015A0002046FFF7C1FB70BD002384F84430EDE70F
:1015B000002384F84530EFE73246294604F1240041
:1015C00000F0EAFCECE700F1080343604FF0FF3263
:1015D0008260C360036100230360704700230361DE
:1015E000704743684B609A688A609A685160996056
:1015F0000861036801330360704730B40D68B5F1CA
:10160000FF3F02D000F1080202E0026904E01A463E
:1016100053681C68A542FAD253684B6099608A608F
:101620005160086103680133036030BC704703698F
:101630004268816891608268416851605A6890424E
:1016400006D0002202611A68013A1A6018687047D1
:1016500082685A60F5E7FFFF034B0360034B0B60A2
:101660005A231360704700BF283000102029001053
:10167000034B0360034B0B604FF4B473136070476C
:1016800088300010882A001010B582B00C460190F6
:101690000023009301F0FEF801992246044804F06B
:1016A00095F8009B002BFCD001F016F902B010BD9C
:1016B0008CA5001A08B5044804F088F803495020A6
:1016C000FFF7E2FF08BD00BF5CA5001A3CA5001AA9
:1016D0000A4B1B681B684BB901234BB9074B1B68AE
:1016E000DB68DB685A68064B1A6070470023F4E732
:1016F0004FF0FF32024B1A60704700BFEC30001011
:10170000C03100102DE9F04781460D4617469A4634
:10171000089EDDF824800A9C9200A521206B03F02E
:10172000F3FF236B07F18042013A03EB820727F0B6
:101730000707676400230F2B07D8E95CE21882F8DB
:101740003410EA5C0AB10133F5E7002384F8433032
:10175000062E00D90626E662266500256565201D51
:10176000FFF73CFF04F11800FFF738FF2461C6F1D2
:101770000706A6616462A56584F85C505246494636
:10178000384601F059F82060B8F1000F01D0C8F8D0
:101790000040BDE8F087FFFF38B5002407E004EB08
:1017A000840293000E481844FFF70DFF0134062C05
:1017B000F5D90C4D2846FFF706FF0B4C2046FFF7E6
:1017C00002FF0A48FFF7FFFE0948FFF7FCFE094841
:1017D000FFF7F9FE084B1D60084B1C6038BD00BFC9
:1017E000F430001098310010AC310010C8310010F6
:1017F000F4310010E0310010EC300010F030001037
:1018000010B5044601F046F8214A1368013313600D
:10181000204B1B68002B32D01F4B1B683BB91D4B64
:101820001B68DA6AE36A9A4201D81A4B1C601B4AA9
:10183000136801331360A364E36A01229A401849D4
:10184000086802430A6003EB83039A00211D1548D0
:101850001044FFF7C6FE01F03FF80F4B1B686BB159
:101860000C4B1B68DA6AE36A9A4207D24FF0805247
:101870000D4B1A60BFF34F8FBFF36F8F10BD054B39
:101880001C601368012BD2D1FFF786FFCFE700BFA2
:1018900080310010E8300010DC3100109031001071
:1018A00094310010F430001004ED00E010B504464F
:1018B00090F85D3063B1012B11D0022B12D04FF0A4
:1018C000A00383F31188BFF36F8FBFF34F8FFEE741
:1018D000006BFFF77FF92046FFF77CF910BDFFF79B
:1018E00079F910BD10BDFFFF0F4B1B68D3B110B5C8
:1018F00000F0D0FF0D4BDB68DC68201DFFF797FE82
:101900000B4A1368013B1360074A1368013B1360DD
:1019100000F0E2FF2046FFF7C9FF034B1B68002BD6
:10192000E6D110BD704700BF84310010F4310010C3
:101930008031001008B5FFF7D7FF064B1B68012B5D
:10194000F9D94FF08052044B1A60BFF34F8FBFF3A9
:101950006F8FF0E7F430001004ED00E070B504463E
:101960000E461D4B1D681D4B18680430FFF75FFEC7
:1019700050B91A4B1B68DA6A012303FA02F21849BC
:101980000B6823EA02030B60B4F1FF3F13D02C4431
:10199000124B1B685C60A54216D8124B18680F4B9F
:1019A00019680431FFF729FE0F4B1B689C4201D2D6
:1019B0000D4B1C6070BD002EE9D0084B1968043136
:1019C0000A48FFF70EFE70BD094B1868034B1968F3
:1019D0000431FFF712FE70BD08320010E83000102D
:1019E00094310010EC300010C0310010E0310010D4
:1019F000F030001070B586B00B9D0C9C75B1B4B181
:101A000060260496049E602E1AD04FF0A00383F344
:101A10001188BFF36F8FBFF34F8FFEE74FF0A00326
:101A200083F31188BFF36F8FBFF34F8FFEE74FF043
:101A3000A00383F31188BFF36F8FBFF34F8FFEE7CF
:101A40002563022584F85D5000250395029405ADB9
:101A500001950A9D0095FFF755FE2046FFF7D0FE41
:101A6000059806B070BD2DE9F04385B006460F46D7
:101A7000154698469000FFF725F810B38146602080
:101A8000FFF720F80446C0B1C0F83090DCB1002365
:101A900084F85D30039302940D9B01930C9B00939B
:101AA00043462A4639463046FFF72CFE2046FFF7CC
:101AB000A7FE012005B0BDE8F0834846FFF78AF88D
:101AC000E4E70024E2E74FF0FF30F3E710B588B019
:101AD00000240594069407AA06A905A8FFF7BCFDF3
:101AE000059B0293069B019300942346079A19498C
:101AF0001948FFF77FFF48B10120012808D00128CD
:101B000009D0B0F1FF3F1BD008B010BD0020F4E7B2
:101B100000F0A0FCF3E74FF0A00383F31188BFF3BC
:101B20006F8FBFF34F8F4FF0FF320C4B1A600122C3
:101B30000B4B1A6000220B4B1A6000F04DFFE3E7DD
:101B40004FF0A00383F31188BFF36F8FBFF34F8F64
:101B5000FEE700BFCCA5001A3519001AC0310010ED
:101B6000DC31001008320010024A136801331360A0
:101B7000704700BF8C310010014B1868704700BFE0
:101B800008320010F8B53C4B1B68002B68D13B4B6A
:101B90001D6801351D60C5B9394B1B681B6843B111
:101BA0004FF0A00383F31188BFF36F8FBFF34F8F04
:101BB000FEE7334A1168334B186810601960324AE7
:101BC000136801331360FFF783FD304B1B689D42A0
:101BD0003AD200242E4B1B68DB6A03EB83039A0086
:101BE0002C4B9B58012B40D901243EE00124244B6F
:101BF0001B681B6853B3002353BB214B1B68DB6876
:101C0000DE6873689D4228D3371D3846FFF70FFD05
:101C1000B36A1BB106F11800FFF709FDF36A012250
:101C20009A401D49086802430A6003EB83039A0047
:101C3000394618481044FFF7D4FCF26A144B1B686D
:101C4000DB6A9A42D2D2D2E70024D0E70123D3E75D
:101C50004FF0FF320D4B1A60BCE70C4A1360B9E736
:101C60000E4A13680133136000240D4B1B6803B147
:101C700001242046F8BD00BF8C310010083200104E
:101C8000EC300010F0300010C4310010C0310010F2
:101C9000E8300010F430001094310010883100104A
:101CA0000C32001038B5354B1B6843B94FF0A00318
:101CB00083F31188BFF36F8FBFF34F8FFEE700F000
:101CC000E9FD2E4B1A68013A1A601B68002B50D1AF
:101CD0002B4B1B6823B9002400F0FEFD204638BDC5
:101CE0000024284B1B681BB3264BDB68DC6804F11F
:101CF0001800FFF79CFC251D2846FFF798FCE36AB7
:101D000001229A402049086802430A6003EB8303DA
:101D10009A0029461D481044FFF763FCE26A1C4BF9
:101D20001B68DB6A9A42DCD301221A4B1A60D8E79F
:101D30000CB1FFF7CDFC184B1C6874B9154B1B6830
:101D4000CBB14FF08052154B1A60BFF34F8FBFF3EA
:101D50006F8F0124C0E7013C07D0FFF713FF002875
:101D6000F9D001220B4B1A60F5E700220A4B1A60EA
:101D7000E4E70024B0E70024AEE700BF8C31001098
:101D800080310010C831001094310010F430001080
:101D9000E83000100C3200108831001004ED00E033
:101DA00038B550B1054689B94FF0A00383F31188C7
:101DB000BFF36F8FBFF34F8FFEE74FF0A00383F3A6
:101DC0001188BFF36F8FBFF34F8FFEE71C4B1B686B
:101DD00043B14FF0A00383F31188BFF36F8FBFF3BC
:101DE0004F8FFEE70C46FFF7BFFE164B18682A68B8
:101DF0001444904216D2A2421AD9A0421AD3002209
:101E00002C601AB10021201AFFF7A8FDFFF74AFF46
:101E100038B94FF080520C4B1A60BFF34F8FBFF3AD
:101E20006F8F38BDA24207D8A04207D30022E7E750
:101E30000022E5E70122E3E70122E1E70122DFE7F3
:101E40008C3100100832001004ED00E010B5A8B18C
:101E50000446104B1B6843B14FF0A00383F3118875
:101E6000BFF36F8FBFF34F8FFEE7FFF77DFE0021BB
:101E70002046FFF773FDFFF715FF00E0002038B99B
:101E80004FF08052044B1A60BFF34F8FBFF36F8F38
:101E900010BD00BF8C31001004ED00E02D4B1B681D
:101EA00053BB10B500222C4B1A602C4B1B681B6BCC
:101EB0001A68B2F1A53F03D15A68B2F1A53F1FD00D
:101EC000264B186819683431FFF7F4FB244B1B6864
:101ED000B3FA83F3DBB2C3F11F0303EB83018A0080
:101EE00020498A58AAB94FF0A00383F31188BFF3A1
:101EF0006F8FBFF34F8FFEE70122174B1A607047B9
:101F00009A68B2F1A53FDBD1DB68B3F1A53FD7D129
:101F1000DCE714489A00D418A10001444C686468B6
:101F20004C601A44910008310844844209D003EB04
:101F300083039A000B4B13445B68DA68074B1A6003
:101F400010BD606803EB83029100064A0A445060AA
:101F5000EDE700BF8C3100100C320010E8300010AB
:101F600094310010F430001040B94FF0A00383F317
:101F70001188BFF36F8FBFF34F8FFEE710B50C468C
:101F8000044B19681831FFF738FB01212046FFF791
:101F9000E5FC10BDE830001038B570B10C461546B0
:101FA0000A4A11681831FFF71CFB0DB14FF0FF34DE
:101FB00029462046FFF7D2FC38BD4FF0A00383F33B
:101FC0001188BFF36F8FBFF34F8FFEE7E83000102B
:101FD00038B5C368DC6824B304F118052846FFF758
:101FE00026FB184B1B682BBB251D2846FFF71FFB44
:101FF000E36A01229A401449086802430A6003EB2D
:1020000083039A00294611481044FFF7EAFAE26A6E
:102010000F4B1B68DB6A9A4211D901200D4B1860E7
:1020200038BD4FF0A00383F31188BFF36F8FBFF368
:102030004F8FFEE729460848FFF7D3FAE7E700206D
:1020400038BD00BF8C31001094310010F430001006
:10205000E83000100C320010C8310010034B1B6830
:102060000360034B1B684360704700BFC43100101E
:1020700008320010F8B5E0B1054619B30C4600F07F
:1020800009FC1A4B18686968421A2368B3F1FF3FCC
:1020900028D02F68164E3668B74201D0884223D226
:1020A0009A4218D300232360012400F015FC204637
:1020B000F8BD4FF0A00383F31188BFF36F8FBFF318
:1020C0004F8FFEE74FF0A00383F31188BFF36F8FAC
:1020D000BFF34F8FFEE79B1A23602846FFF7BEFF32
:1020E0000024E2E70024E0E70124DEE708320010E4
:1020F000C43100100122014B1A6070470C320010ED
:10210000054B1B6823B1054B1B681BB902207047A8
:102110000120704700207047DC3100108C31001026
:10212000002854D038B50446C26A2A490968C96AE9
:102130008A4242D28169002905DB26490968C96AB9
:10214000C1F107018161606902EB82029100224ABC
:102150000A44904207D000223AB91E4A1268D26A55
:10216000E262012038BD0122F6E7251D2846FFF76F
:102170005EFA68B9E36A03EB83018A0016498A585C
:1021800032B901229A4015490B6823EA02030B6019
:10219000104B1B68DB6AE362012404FA03F20F4967
:1021A000086802430A6003EB83039A0029460A4841
:1021B0001044FFF716FA204638BD026D054B1B6828
:1021C000DB6A9A4201D2012038BD002038BD0020D0
:1021D000704700BFE8300010F43000109431001058
:1021E00000284AD038B50446274A1268904208D0E1
:1021F0004FF0A00383F31188BFF36F8FBFF34F8FAE
:10220000FEE7426D42B94FF0A00383F31188BFF39C
:102210006F8FBFF34F8FFEE7013A4265C06A216DB1
:1022200088422CD06ABB251D2846FFF700FA70B9FA
:10223000E26A02EB82018B001449CB583BB90123BF
:1022400003FA02F212490B6823EA02030B60236DC2
:10225000E362C3F10702A261012404FA03F20C490C
:10226000086802430A6003EB83039A002946074883
:102270001044FFF7B6F9204638BD00207047002013
:1022800038BD002038BD00BFE8300010F430001029
:102290009431001000285BD038B50446406D40B939
:1022A0004FF0A00383F31188BFF36F8FBFF34F8FFD
:1022B000FEE7226D8A4200D20A46E16A8A4201D0D4
:1022C000012800D038BD23480068844208D14FF06F
:1022D000A00383F31188BFF36F8FBFF34F8FFEE727
:1022E000E262A069002802DBC2F10702A261636911
:1022F00001EB81018800184A0244934226D1012251
:10230000002ADFD0251D2846FFF791F970B9E26A4F
:1023100002EB82018B001049CB583BB9012303FA31
:1023200002F20E490B6823EA02030B60E36A012202
:102330009A400A49086802430A6003EB83039A0043
:10234000294605481044FFF74CF9BBE70022D7E7C0
:10235000704700BFE8300010F430001094310010D6
:10236000054B1B6823B1044B1A68536D0133536549
:10237000014B1868704700BFE8300010064B1A6820
:102380001368B3FA83F35B09036013B9D368186861
:1023900070470020704700BF1032001008B5416040
:1023A000006191420CD8D21A83699A4201D301206C
:1023B00008BD011D094B1868FFF71FF9002008BD73
:1023C0009A4201D2994206D2011D054B1868FFF7C7
:1023D00014F9002008BD012008BD00BF1432001010
:1023E0001032001030B583B000F054FA114B1B6866
:1023F0001BB100F071FA03B030BD0F4D2846FFF756
:10240000E2F80E4C2046FFF7DEF80D4B1D600D4B39
:102410001C60002300930C4B0C4A10210A20FEF78D
:102420000CFD044B18600028E3D00949FFF78EF833
:10243000DFE700BF34330010B8320010CC32001098
:102440001032001014320010E43200101832001064
:10245000D4A5001A10B588B0FFF7C4FF154B1B6850
:102460001BB300240594069407AA06A905A8FFF744
:10247000FFF8059B0293069B0193042300932346D8
:10248000079A0D490D48FFF7B5FA0D4B186050B18A
:10249000012060B94FF0A00383F31188BFF36F8F61
:1024A000BFF34F8FFEE72046F3E70020F1E708B0C7
:1024B00010BD00BF34330010DCA5001AA527001A98
:1024C00038330010C0B130B585B015460446174A00
:1024D000106840B31A4600910195029405291CDC4E
:1024E000FFF70EFE022810D000231A4669460F4857
:1024F0000068FEF719FD14E04FF0A00383F3118884
:10250000BFF36F8FBFF34F8FFEE70023089A694632
:1025100006480068FEF708FD03E000236946FEF761
:10252000C7FD05B030BD0020FBE700BF343300100D
:1025300070B582B01A4B1B681A6852B3DB681E680C
:10254000DC68251D2846FFF772F8636A2046984725
:10255000E369012BEED1A36933449E4207D2636045
:10256000246129460E4B1868FFF747F8E2E700217F
:1025700000910B4632462046FFF7A4FF0028D9D130
:102580004FF0A00383F31188BFF36F8FBFF34F8F1A
:10259000FEE7044A106802490860136002B070BD8B
:1025A000103200101432001038B50546FFF7E4FA77
:1025B0000446074B1B68984205D300232B60044B4D
:1025C0001C60204638BDFFF7B3FF01232B60F6E700
:1025D000E032001070B582B005460E46144B1B6801
:1025E000DB68DC68201DFFF722F8E369012B04D0CB
:1025F000636A2046984702B070BDA1692B463246F7
:1026000029442046FFF7CAFE0028F1D0002100919E
:102610000B462A462046FFF755FF0028E8D14FF029
:10262000A00383F31188BFF36F8FBFF34F8FFEE7D3
:102630001032001070B582B006460C46FFF794FACF
:1026400001A8FFF7B1FF019B23BB05460CB9B042BF
:1026500019D22CB1114B1B681C68B4FA84F46409BC
:102660002246711B0E4B1868FEF784FFFFF71AFB1A
:1026700038B94FF080520B4B1A60BFF34F8FBFF346
:102680006F8F02B070BDFFF70DFB29463046FFF794
:10269000A1FFF6E7FFF706FBF3E700BF14320010D7
:1026A0003433001004ED00E030B589B002E0049B43
:1026B000002B0FDA002204A9394B1868FEF7C6FD7B
:1026C00000286AD0049B002BF1DA07990698059B35
:1026D0009847ECE7069C636913B1201DFEF7A7FF3E
:1026E00003A8FFF761FF049B092BE3D801A252F86E
:1026F00023F000BF1D27001A1D27001A1D27001AEE
:10270000B526001A6527001A8B27001A1D27001A04
:102710001D27001AB526001A6527001A0599A56914
:102720000B46024629442046FFF738FE0028C1D058
:10273000636A20469847E369012BBBD1A269002157
:1027400000910B46059802442046FFF7BBFE002887
:10275000B0D14FF0A00383F31188BFF36F8FBFF3A5
:102760004F8FFEE70599A16131B10346024601444E
:102770002046FFF713FE9DE74FF0A00383F3118877
:10278000BFF36F8FBFF34F8FFEE794F82C30002B11
:1027900090D12046FEF71EFA8CE709B030BD00BF8D
:1027A0003433001000B583B001A8FFF7E7FD0199AD
:1027B000FFF740FFFFF778FFF6E7FFFF82B0002347
:1027C00001930D4B1B68B3F1FF3F08D04FF0A003FE
:1027D00083F31188BFF36F8FBFF34F8FFEE74FF086
:1027E000A00383F31188BFF36F8FBFF34F8F019B5B
:1027F000002BFCD002B070470000001008480068B1
:10280000006880F308884FF0000080F3148862B6F7
:1028100061B6BFF34F8FBFF36F8F00DF00BF0000C3
:1028200008ED00E0DFF80C00016841F47001016080
:102830007047000088ED00E04FF0807340F8043CE2
:1028400021F0010140F8081C054B40F80C3C40F811
:10285000202C6FF0020340F8243C4438704700BF3E
:10286000BD27001AFFFFFFFFFFFFFFFFFFFFFFFF76
:10287000074B19680868B0E8F04F80F30988BFF388
:102880006F8F4FF0000080F311887047AFF3008026
:10289000E83000104FF0A00383F31188BFF36F8F6F
:1028A000BFF34F8F0A4A136801331360012B0DD118
:1028B000084B1B6813F0FF0F08D04FF0A00383F301
:1028C0001188BFF36F8FBFF34F8FFEE7704700BFD4
:1028D0000000001004ED00E0094B1B6843B94FF005
:1028E000A00383F31188BFF36F8FBFF34F8FFEE711
:1028F000013B034A13600BB983F31188704700BF93
:1029000000000010FFFFFFFFFFFFFFFFFFFFFFFFC3
:10291000EFF30980BFF36F8F154B1A681EF0100F8D
:1029200008BF20ED108A20E9F04F10602DE9090062
:102930004FF0A00080F31188BFF34F8FBFF36F8F6C
:10294000FFF7ACFA4FF0000080F3118809BC19685A
:102950000868B0E8F04F1EF0100F08BFB0EC108A06
:1029600080F30988BFF36F8F704700BFAFF300801B
:10297000E830001008B54FF0A00383F31188BFF3CF
:102980006F8FBFF34F8FFFF7FDF818B14FF08052F4
:10299000024B1A60002383F3118808BD04ED00E0A8
:1029A000084A0023136008490B60084B1B6808495C
:1029B000A1FB03139B09013B06490B60072313602E
:1029C000704700BF10E000E018E000E0483400105D
:1029D000D34D621014E000E03A4B1A683A4B9A4229
:1029E00008D14FF0A00383F31188BFF36F8FBFF3BB
:1029F0004F8FFEE7334B1A68344B9A4208D14FF0A1
:102A0000A00383F31188BFF36F8FBFF34F8FFEE7EF
:102A100010B582B02E4B1A78D2B20192FF221A70F2
:102A20001B78DBB28DF803309DF8033003F0A00370
:102A3000284A13700722284B1A6009E0264A1368B7
:102A4000013B13609DF803305B00DBB28DF803306F
:102A50009DF8033013F0800FF0D11F4B1B68042B3F
:102A600008D04FF0A00383F31188BFF36F8FBFF33B
:102A70004F8FFEE71B0203F4E063174A1360019BCC
:102A8000DBB2134A1370154B1A6842F460021A60E5
:102A90001A6842F060421A60FFF782FF0024104B70
:102AA0001C60FFF7BFFE0F4A136843F040431360FA
:102AB000FFF7A4FEFFF7F2F9FFF780FE204602B011
:102AC00010BD00BF00ED00E071C20F4170C20F41A8
:102AD00000E400E03C3300104033001020ED00E043
:102AE0000000001034EF00E0EFF305830F2B0FD947
:102AF000104A9B5CDBB2104A1278934208D24FF026
:102B0000A00383F31188BFF36F8FBFF34F8FFEE7EE
:102B10000A4B1B6803F4E063094A1268934208D920
:102B20004FF0A00383F31188BFF36F8FBFF34F8F74
:102B3000FEE77047F0E300E03C3300100CED00E0EE
:102B40004033001008B50122044BC3F88021044B28
:102B50001B6813B1024B1B68984708BD00E100E0F9
:102B6000443300100022052A19D870B40C4911F81A
:102B7000125001EB42014C780A4B05F5006653F800
:102B800026100120A040014343F8261003EB451313
:102B9000002119550132052AE8D970BC70477047E9
:102BA000F0A5001A00400F400023032B16D830B4C4
:102BB0000B4911F8132001EB43014D78094C02F544
:102BC000006254F822100120A84021EA000144F8D4
:102BD00022100133032BEBD930BC7047704700BF84
:102BE000E8A5001A00400F400023082B16D830B487
:102BF0000B4911F8132001EB43014D78094C02F504
:102C0000006254F822100120A84021EA000144F893
:102C100022100133082BEBD930BC7047704700BF3E
:102C2000FCA5001A00400F4010B582B0084C694660
:102C3000204600F0DFF9074A6946204600F0FAF91D
:102C400000226946204600F00EFA02B010BD00BF17
:102C500000300E40801A060010B50B4C204600F0E4
:102C6000C3FD636823F004036360236823F0FF035C
:102C700043F0070323600549204600F096FD636892
:102C800043F00203636010BD00500C40A0860100B9
:102C900008B5002000F0D4FD40F60802034BC3F84D
:102CA000842C0349002000F0DDFD08BD00600840D1
:102CB00040420F0010B5074C204600F0B9F84FF421
:102CC000E131204600F0FEF80323E3600123E365D1
:102CD00010BD00BF00100C40034B5B6913F0200FC8
:102CE000FAD0014B1860704700100C40054B5B692F
:102CF00013F0010F03D0034B1868C0B270474FF0B8
:102D0000FF30704700100C4008B5FFF7D3FF0948AB
:102D100000F02AFDFFF768FFFFF786FFFFF79CFF33
:102D2000FFF7B6FFFFF71EFFFFF73EFF00F0A2F927
:102D300008BD00BF00400F4008B5C0B2FFF7CCFF90
:102D400008BD08B5FFF7D2FF08BD08B5FFF7B2FF11
:102D500008BDFFFF00231C2B12D810B4094A02EB58
:102D6000830112F823404A78488802EB441206494E
:102D700041F8220001331C2BF0D95DF8044B704759
:102D8000704700BF18A6001A0060084010B5174A27
:102D9000D2F8203123F4704343F41043C2F82031B9
:102DA000D2F8243123F4704343F41043C2F82431A1
:102DB00001220F49062000F02DFC00244CB10B4BE2
:102DC0005A6822F00C025A605A6842F003025A60B4
:102DD00010BD084800EB840101238A78497810F877
:102DE000240000F073FB0134E8E700BF003004402A
:102DF00000CB280C14A6001A08B5FFF7ABFFFFF7AD
:102E0000C5FF08BD094B984209D003F5805398428D
:102E100007D0A3F58023984205D0002070470220F8
:102E20007047032070470120704700BF00100C401E
:102E300030B583B00446FFF7E5FF01231A46194673
:102E40000E4D35F8100000F087FB0723A360002328
:102E5000E3656360E3602362E36463652365084BB5
:102E60009C4206D00323E3601023A362019B03B0BE
:102E700030BD00232361A3690193F3E794A6001AF0
:102E80000020084038B505460C46FFF7BBFF0C4B49
:102E900033F8100000F098FB2301B0FBF3F3D9B234
:102EA000EA6842F08002EA602960C3F307226A60A0
:102EB000EA6822F08002EA60B0FBF3F0000938BD56
:102EC0008CA6001A2DE9F04F83B083468846FFF7A1
:102ED00099FF354B33F8100000F076FB06464FF0B3
:102EE000FF37012400230193A24699462AE043427A
:102EF0004A1C17E00BB31F460195A24691460135C7
:102F0000AC421ED933093007A4FB000104FB0311B6
:102F1000621908FB02F2002301F062FB03460A4635
:102F20000028E4DB9F42EAD3002AE8D0110CE6D166
:102F3000022ADFD8002DE2D1DCE71F460195A24628
:102F4000914601341FB10F2C01D80025D8E7B9F103
:102F5000000F24D0DBF80C3043F08003CBF80C30AA
:102F60005FFA89F3CBF80030C9F30723CBF80430BC
:102F7000DBF80C3023F08003CBF80C304FEA0A1357
:102F8000DBB2019901F00F021343CBF8283033096B
:102F900003FB0AF38A440AFB09F9B3FBF9F9484633
:102FA00003B0BDE8F08F00BF8CA6001A034B984217
:102FB00001D0032070470420704700BF00400E403E
:102FC00070B50D4614461E46FFF7F0FF00F0FCFA00
:102FD00065B904EB840304EB430404EB4000640094
:102FE000B0FBF4F0C0B20138C0B270BD04FB06F40F
:102FF000F3E7FFFF38B505460C46FFF7D7FF01237F
:103000001A46194600F0A8FA0021E960084A226031
:10301000217161710B232846FFF7D2FF000240F4B3
:10302000001023795B0403F460231843286038BD43
:10303000801A060070B505460E46046824F46F2415
:1030400024F470640A600B79C3F10B03DBB2497995
:10305000FFF7B6FF44EA00203479640404F46024E6
:103060002043286070BD08B50A710A68FFF7E2FFC7
:1030700008BDFFFF08B5692000F0A6FA014B1860F3
:1030800008BD00BF48340010F0B50B6813F0800F86
:1030900002D023F040030B60074601253BE04B695B
:1030A00003FB02F3B3FBF5F314E01C4620E0CEF182
:1030B000000E20E00132B2F5807F26DC0C6814F0AF
:1030C000400FECD0731C02FA03FE4B6903FB0EF3B6
:1030D000B3FBF5F3DFF848E07345EBD9DFF844E0E4
:1030E000734512D814F0800FDFD1741C23FA04F456
:1030F000B0EB040EDBD47745DCD98D60771CCF6054
:103100000A618C61CB617746D4E70136032E01DC7E
:103110000122D0E70135042D01DC0026F6E7F0BDE1
:10312000FF5E4C0900D01213F0B599B005460C466D
:1031300060220021684602F0E7FA80230093636969
:10314000059323798DF8043069462846FFF79CFFE4
:10315000069B9D4227D0EB1A2ED41E46109B23F0CF
:10316000400310936369159323798DF8443010A9B7
:103170002846FFF789FF169B9D421FD0EB1A25D4E6
:103180001F462B4B9D4223D90E9BED1A33D4AE42E2
:103190003BDCBE4231DC6D460FCD0FC495E80F001D
:1031A00084E80F0006E06D460FCD0FC495E80F00D0
:1031B00084E80F0019B0F0BD5B42CEE710AD0FCD33
:1031C0000FC495E80F0084E80F00F3E75B42D7E7F0
:1031D0004023089363690D9308A92846FFF754FF1D
:1031E0000E9B9D42D0D108AD0FCD0FC495E80F00C6
:1031F00084E80F00DEE76D42C9E710AD0FCD0FC4C4
:1032000095E80F0084E80F00D4E7AF4207DB08AD74
:103210000FCD0FC495E80F0084E80F00CAE710AD8A
:103220000FCD0FC495E80F0084E80F00C2E700BF80
:1032300080778E0630B4054600231C2000E0013361
:103240001C2818D103EB430251000C4A0A4414799C
:10325000A04210D003EB43014A0008498A5AAA420F
:10326000EDD803EB43025100044A0A4452889542C8
:10327000E5D82046E4E730BC704700BFA8A6001A96
:1032800082B04FF47A7301930D4A936923F00201DF
:103290009269914201D00A4A916123F00303094ADD
:1032A0001168094A914201D943F00403044A936129
:1032B000019B5A1E0192002BFAD102B0704700BF49
:1032C0000000054010A6001AFF2C31011230054BFA
:1032D00053F8200010F0010F01D011207047C0F307
:1032E000046070470000054000F11202034B53F8E0
:1032F0002220034B185C00EA920070470000054052
:10330000A0A6001A08B510280AD8DFE800F0440B80
:103310000D18210924272A2D09093034383C400092
:10332000002008BD1E4808BD1E4BD3F82C3103F009
:103330000703042B01D01C4808BD002008BD194B11
:10334000D3F82C3103F00703042B27D0164808BD0F
:10335000164B186808BD164B186808BD154B186841
:1033600008BD144B586808BD00F068F808BD00217E
:1033700000F09AF808BD012100F096F808BD02217E
:1033800000F092F808BD032100F08EF808BD04217A
:1033900000F08AF808BD4FF4004008BD064808BD9B
:1033A000001BB7000030044040787D01E4A5001AFE
:1033B00010A6001A4833001080F0FA0238B505460E
:1033C0000C460879FFF79EFF6061194B2B44194AA0
:1033D000934221D818B3802323600023A360E360C5
:1033E000B5FBF0F32361144A954203D903FB00F0C7
:1033F000854207D021462846FFF796FEA3688BB189
:10340000013BA360236983B1E2680AB1013AE2603B
:10341000013B2361002038BD4FF0FF3038BD4FF035
:10342000FF3038BD4FF0FF3038BD4FF0FF3038BDB2
:10343000103A6BFF1005940BFF5E4C0930B583B05A
:10344000174D6C6CC4F30360FFF75CFF154B1B68F2
:1034500001932B6C13F0010F1FD0C4F30742C4F388
:103460000133C4F30121C4F38015013201330DF19E
:10347000080E714411F8041C14F0800F08D13DB9F6
:103480004900B2FBF1F2B0FBF3F000FB02F005E003
:10349000B0FBF3F000FB02F000E0002003B030BD11
:1034A000000005409CA6001A38B50C460846FFF7F8
:1034B0000DFF05462046FFF717FF04462846FFF795
:1034C00021FF0134B0FBF4F038BDFFFF30B400F150
:1034D0001604A40004F1804404F5A02465681B28A8
:1034E00013D811291AD00E4C2C400AB144F40064B0
:1034F0000BB144F0010444EA01641630800000F18D
:10350000804000F5A020446008E045F00105163039
:10351000800000F1804000F5A020456030BC70477D
:10352000FEF7FFE01B2801D91120704716308000FC
:1035300000F1804000F5A020406810F0010F01D09C
:1035400011207047C0F30460704708B5FFF7EAFF29
:10355000FFF7D8FE08BDFFFF69B901210AB141F0AC
:103560000401022B09D0B0F5A17F09D22030074B0E
:1035700043F8301070470321F0E741F02001F2E7F3
:10358000A0F59170024B43F83010704700100540D1
:1035900000200540B0F5A17F08D2094A203052F83A
:1035A000303043F0010342F830307047054AA0F54F
:1035B000917052F8303043F0010342F830307047D8
:1035C000001005400020054010B5B0F5A17F09D3DB
:1035D000A0F591730D4A52F8334014F0010F07D152
:1035E000002010BD00F12003094A52F83340F4E7EF
:1035F000FFF720FEFFF7A9FF14F0E00F03D101232E
:10360000B0FBF3F010BD0223FAE700BF0020054035
:103610000010054070B58AB005460E4614464CF2BF
:1036200050330993062818D000230122294604208C
:10363000FFF74CFF494A536C43F0010353648DF884
:10364000085001A93046FFF7B9FE454B9E4216D9F6
:10365000019B13F0400F03D0FEE7FFF711FEE3E7F5
:1036600013F0800F05D023F080030193002501267D
:1036700007E0049B013304930125002601E00025A7
:103680002E469DF80820019B43EA0263059A43EA0F
:103690000243039A43EA0233049A43EA022343F4BF
:1036A00000632E4A53642D4B1B6C13F0010FFAD0AC
:1036B0000023012209210420FFF708FFFEB14CF28C
:1036C00050330993099B5A1E0992002BFAD1019B92
:1036D00043F0800301939DF8082043EA0263059AB2
:1036E00043EA0243039A43EA0233049A43EA022379
:1036F00043F40063194A53646CB3002429E0002D9D
:10370000FAD04CF250330993099B5A1E0992002BB0
:10371000FAD1049B5A1E04929DF80810019B43EABB
:103720000163059943EA0143039943EA013343EAFC
:10373000022343F40063094A5364DDE7094800EBC0
:103740008401CB788A78497810F82400FFF7BEFE10
:103750000134112CF2D90AB070BD00BF0000054041
:1037600080778E0614A7001A7047FFFF034B98421C
:1037700001D083207047A520704700BF00500C4047
:10378000044B984202D040F2022070474FF4F1708F
:10379000704700BF00500C40036823F47F430902C8
:1037A00089B20B4303600261704770B506460D464F
:1037B000FFF7E6FFFFF708FF02224FF0FF3300217B
:1037C00000E02146AB420BD94C1C04FB02F3B0FBDA
:1037D000F3F39D42F6D2FF2CF3D902320021F1E738
:1037E0003046FFF7D9FF70BD10B50446FFF7BEFFA6
:1037F000FFF7D0FE2046FFF7C3FFFFF7CBFE63685D
:1038000023F004036360236823F0FF0343F00703FE
:10381000236002492046FFF7C8FF10BDA0860100C3
:10382000012900D07047C0EBC0008200034B134455
:103830001A69137DDBB2042BFBD0F3E70400001000
:1038400070B50546064EC400221A9300334498888A
:10385000FFF7A0FE641BA300F3586C229A6170BDB1
:10386000040000102DE9F0410C460B4EC5002B1A48
:103870004FEA830806EB08039888FFF7A5FEB0FB24
:10388000F4F056F8083042081A6156F808301A6900
:10389000801A5861BDE8F0810400001008B50D4B96
:1038A0000D4A9A6003F50C731B6903F47F63202BA8
:1038B0000DD0002333B1074AD2F8883043F47003A7
:1038C000C2F88830FFF798FAFFF71EFA08BD012307
:1038D000F0E700BF00ED00E00000001A044B1860A4
:1038E000044A136843F0010313600120704700BFCE
:1038F0003C000010001000E02DE9F84380468946A6
:10390000194C45002A189300E618E7583846FFF787
:103910008FFA49463846FFF7B5FA0723BB603B6884
:103920000123FB6530797379B27942F018020F49AF
:1039300003EB401341F82320F079337A727A42F096
:10394000D00203EB401341F82320B8F1010F01D05E
:10395000BDE8F883064AD36C43F03003D3641A22DF
:10396000C1F80823F4E700BF5CA7001A0060084014
:103970000010084030B40B4D00EB80002C18285686
:10398000087094F90110117094F902201A7094F9DA
:103990000320029B1A7094F90420039B1A7030BC18
:1039A000704700BFA4A7001A10F1020F00F0C780F3
:1039B000B0F1FF3F00F0C58070B584B00C46002325
:1039C0008DF80F308DF80E308DF80D308DF80C30ED
:1039D0008DF80B300DF10B03019303AB00930DF148
:1039E0000D030DF10E020DF10F01FFF7C3FF052CC2
:1039F00000F2A980DFE804F00981274563035348FA
:103A0000FFF7B2FE012004B070BD9DF80F109DF8C5
:103A10000E309DF80D2042F0D00203EB41134C49CB
:103A200041F823209DF80C309DF90B20012000FA6D
:103A300002F1464C03F5006354F8232022EA010208
:103A400044F82320DFE79DF80F109DF80E309DF815
:103A50000D2042F0C00203EB41133D4941F8232001
:103A60009DF80C309DF90B20012000FA02F1374C33
:103A700003F5006354F8232022EA010244F82320CE
:103A8000C1E79DF80F109DF80E309DF80D2042F013
:103A9000D80203EB41132E4941F823209DF80C3046
:103AA0009DF90B20012000FA02F1284C03F5006378
:103AB00054F8232022EA010244F82320A3E79DF8CA
:103AC0000F109DF80E309DF80D2042F0C80203EB58
:103AD00041131F4941F823209DF80C309DF90B201C
:103AE000012000FA02F1194C03F5006354F8232079
:103AF00022EA010244F8232085E79DF80F109DF883
:103B00000E309DF80D2042F0D00203EB4113104916
:103B100041F823209DF80C409DF90B20012000FA6C
:103B200002F10A4B04F5006553F82560314343F870
:103B30002510D2B203EB44130021995463E700200F
:103B400070470020704700205DE700BF00400F4035
:103B50000060084010F1020F2DD0B0F1FF3F2CD0D3
:103B600010B584B00C4600238DF80F308DF80E3060
:103B70008DF80D308DF80C308DF80B300DF10B03F6
:103B8000019303AB00930DF10D030DF10E020DF146
:103B90000F01FFF7EFFE9DF80C309DF80B20211C64
:103BA00018BF01215B0103F1402303F570239954F1
:103BB000012004B010BD002070470020704710F1B4
:103BC000020F2CD0B0F1FF3F2BD000B585B0002301
:103BD0008DF80F308DF80E308DF80D308DF80C30DB
:103BE0008DF80B300DF10B03019303AB00930DF136
:103BF0000D030DF10E020DF10F01FFF7BBFE9DF954
:103C00000C309DF80B205B0103F1402303F570237A
:103C1000985C003018BF012005B05DF804FB01205E
:103C2000704700207047FFFF08B5044B1B681B68F6
:103C3000DB68034A1068984708BD00BF4C34001089
:103C40005033001008B5FFF715FA184B1868FFF746
:103C500045FE05210020FFF7A7FE00212420FFF7E5
:103C6000A3FE00212520FFF79FFE00212620FFF75D
:103C70009BFE00212720FFF797FE01212820FFF758
:103C800093FE01212920FFF78FFE01212A20FFF753
:103C90008BFE01212B20FFF787FE01212C20FFF74F
:103CA00083FE01212D20FFF77FFE08BD4834001060
:103CB00008B50B46017011461846FFF71DFE08BDFA
:103CC00081F0004102E000BF83F0004330B54FEACD
:103CD00041044FEA430594EA050F08BF90EA020F3A
:103CE0001FBF54EA000C55EA020C7FEA645C7FEACD
:103CF000655C00F0E2804FEA5454D4EB5555B8BFF0
:103D00006D420CDD2C4480EA020281EA030382EA60
:103D1000000083EA010180EA020281EA0303362DF2
:103D200088BF30BD11F0004F4FEA01314FF4801CC5
:103D30004CEA113102D0404261EB410113F0004FD7
:103D40004FEA03334CEA133302D0524263EB43038E
:103D500094EA050F00F0A780A4F10104D5F1200E2C
:103D60000DDB02FA0EFC22FA05F2801841F1000187
:103D700003FA0EF2801843FA05F359410EE0A5F15B
:103D800020050EF1200E012A03FA0EFC28BF4CF08C
:103D9000020C43FA05F3C01851EBE37101F0004542
:103DA00007D54FF0000EDCF1000C7EEB00006EEB4F
:103DB0000101B1F5801F1BD3B1F5001F0CD34908D9
:103DC0005FEA30004FEA3C0C04F101044FEA445230
:103DD00012F5800F80F09A80BCF1004F08BF5FEAB7
:103DE000500C50F1000041EB045141EA050130BD97
:103DF0005FEA4C0C404141EB010111F4801FA4F13A
:103E00000104E9D191F0000F04BF01460020B1FA8E
:103E100081F308BF2033A3F10B03B3F120020CDAC6
:103E20000C3208DD02F1140CC2F10C0201FA0CF0A4
:103E300021FA02F10CE002F11402D8BFC2F1200C09
:103E400001FA02F120FA0CFCDCBF41EA0C019040BF
:103E5000E41AA2BF01EB0451294330BD6FEA040408
:103E60001F3C1CDA0C340EDC04F11404C4F12002F3
:103E700020FA04F001FA02F340EA030021FA04F305
:103E800045EA030130BDC4F10C04C4F1200220FA5C
:103E900002F001FA04F340EA0300294630BD21FA9A
:103EA00004F0294630BD94F0000F83F4801306BF60
:103EB00081F480110134013D4EE77FEA645C18BF54
:103EC0007FEA655C29D094EA050F08BF90EA020FEB
:103ED00005D054EA000C04BF1946104630BD91EAE3
:103EE000030F1EBF0021002030BD5FEA545C05D1E6
:103EF0004000494128BF41F0004130BD14F5800425
:103F00003CBF01F5801130BD01F0004545F0FE4198
:103F100041F470014FF0000030BD7FEA645C1ABFCD
:103F2000194610467FEA655C1CBF0B46024650EA04
:103F3000013406BF52EA033591EA030F41F4002130
:103F400030BD00BF90F0000F04BF0021704730B5B6
:103F50004FF4806404F132044FF000054FF000018B
:103F600050E700BF90F0000F04BF0021704730B54C
:103F70004FF4806404F1320410F0004548BF404221
:103F80004FF000013EE700BF42004FEAE2014FEA76
:103F900031014FEA02701FBF12F07F4393F07F4F51
:103FA00081F06051704792F0000F14BF93F07F4F83
:103FB000704730B54FF4607401F0004521F00041C6
:103FC00020E700BF50EA010208BF704730B54FF04C
:103FD00000050AE050EA010208BF704730B511F051
:103FE000004502D5404261EB41014FF4806404F189
:103FF00032045FEA915C3FF4DCAE4FF003025FEA0B
:10400000DC0C18BF03325FEADC0C18BF033202EB92
:10401000DC02C2F1200300FA03FC20FA02F001FAEC
:1040200003FE40EA0E0021FA02F11444C1E600BF8B
:1040300070B54FF0FF0C4CF4E06C1CEA11541DBF3E
:104040001CEA135594EA0C0F95EA0C0F00F0DEF809
:104050002C4481EA030621EA4C5123EA4C5350EAEE
:10406000013518BF52EA033541F4801143F480133F
:1040700038D0A0FB02CE4FF00005E1FB02E506F0D0
:104080000042E0FB03E54FF00006E1FB03569CF025
:10409000000F18BF4EF0010EA4F1FF04B6F5007F2B
:1040A00064F5407404D25FEA4E0E6D4146EB06069D
:1040B00042EAC62141EA55514FEAC52040EA5E5026
:1040C0004FEACE2EB4F1FD0C88BFBCF5E06F1ED8D0
:1040D000BEF1004F08BF5FEA500E50F1000041EB07
:1040E000045170BD06F0004646EA010140EA0200B4
:1040F00081EA0301B4EB5C04C2BFD4EB0C0541EAD6
:10410000045170BD41F480114FF0000E013C00F3EA
:10411000AB8014F1360FDEBF002001F0004170BD0E
:10412000C4F10004203C35DA0C341BDC04F1140427
:10413000C4F1200500FA05F320FA04F001FA05F2B3
:1041400040EA020001F0004221F0004110EBD37080
:1041500021FA04F642EB06015EEA430E08BF20EAAC
:10416000D37070BDC4F10C04C4F1200500FA04F34F
:1041700020FA05F001FA04F240EA020001F00041E1
:1041800010EBD37041F100015EEA430E08BF20EA54
:10419000D37070BDC4F1200500FA05F24EEA020E9C
:1041A00020FA04F301FA05F243EA020321FA04F0CB
:1041B00001F0004121FA04F220EA020000EBD37082
:1041C0005EEA430E08BF20EAD37070BD94F0000F82
:1041D0000FD101F00046400041EB010111F4801FB6
:1041E00008BF013CF7D041EA060195F0000F18BF67
:1041F000704703F00046520043EB030313F4801FA3
:1042000008BF013DF7D043EA0603704794EA0C0F5C
:104210000CEA135518BF95EA0C0F0CD050EA410672
:1042200018BF52EA4306D1D181EA030101F00041EF
:104230004FF0000070BD50EA410606BF1046194617
:1042400052EA430619D094EA0C0F02D150EA013623
:1042500013D195EA0C0F05D152EA03361CBF104664
:1042600019460AD181EA030101F0004141F0FE4103
:1042700041F470014FF0000070BD41F0FE4141F487
:10428000780170BD70B54FF0FF0C4CF4E06C1CEA87
:1042900011541DBF1CEA135594EA0C0F95EA0C0F3C
:1042A00000F0A7F8A4EB050481EA030E52EA0335F7
:1042B0004FEA013100F088804FEA03334FF0805518
:1042C00045EA131343EA12634FEA022245EA111545
:1042D00045EA10654FEA00260EF000419D4208BFF6
:1042E000964244F1FD0404F5407402D25B084FEAA3
:1042F0003202B61A65EB03055B084FEA32024FF44F
:1043000080104FF4002CB6EB020E75EB030E22BFAB
:10431000B61A754640EA0C005B084FEA3202B6EB6B
:10432000020E75EB030E22BFB61A754640EA5C001A
:104330005B084FEA3202B6EB020E75EB030E22BFAA
:10434000B61A754640EA9C005B084FEA3202B6EBAB
:10435000020E75EB030E22BFB61A754640EADC006A
:1043600055EA060E18D04FEA051545EA16754FEACC
:1043700006164FEAC30343EA52734FEAC2025FEAEA
:104380001C1CC0D111F4801F0BD141EA00014FF079
:1043900000004FF0004CB6E711F4801F04BF01434A
:1043A0000020B4F1FD0C88BFBCF5E06F3FF6AFAE66
:1043B000B5EB030C04BFB6EB020C5FEA500C50F1F6
:1043C000000041EB045170BD0EF0004E4EEA113179
:1043D00014EB5C04C2BFD4EB0C0541EA045170BD80
:1043E00041F480114FF0000E013C90E645EA060EC4
:1043F0008DE60CEA135594EA0C0F08BF95EA0C0FF2
:104400003FF43BAF94EA0C0F0AD150EA01347FF439
:1044100034AF95EA0C0F7FF425AF104619462CE710
:1044200095EA0C0F06D152EA03353FF4FDAE104673
:10443000194622E750EA410618BF52EA43067FF4C4
:10444000C5AE50EA41047FF40DAF52EA43057FF454
:10445000EBAE12E74FF0FF3C06E000BF4FF0010C5F
:1044600002E000BF4FF0010C4DF804CD4FEA410CC3
:104470007FEA6C5C4FEA430C18BF7FEA6C5C1BD090
:1044800001B050EA410C0CBF52EA430C91EA030F11
:1044900002BF90EA020F0020704710F1000F91EA6E
:1044A000030F58BF994208BF90422CBFD8176FEA3C
:1044B000E37040F0010070474FEA410C7FEA6C5C0A
:1044C00002D150EA013C07D14FEA430C7FEA6C5C11
:1044D000D6D152EA033CD3D05DF8040B704700BF3D
:1044E0008446104662468C461946634600E000BF8B
:1044F00001B5FFF7B7FF002848BF10F1000F01BD5D
:104500004DF808EDFFF7F4FF0CBF012000205DF827
:1045100008FB00BF4DF808EDFFF7EAFF34BF0120AC
:1045200000205DF808FB00BF4DF808EDFFF7E0FF45
:1045300094BF012000205DF808FB00BF4DF808ED96
:10454000FFF7CEFF94BF012000205DF808FB00BFFD
:104550004DF808EDFFF7C4FF34BF012000205DF8DF
:1045600008FB00BF4FEA410C7FEA6C5C02D150EAC5
:10457000013C0AD14FEA430C7FEA6C5C02D152EA5B
:10458000033C02D14FF0000070474FF0010070472C
:104590004FEA410212F5001215D211D56FF478736B
:1045A000B3EB625212D94FEAC12343F0004343EA0E
:1045B000505311F0004F23FA02F018BF40427047E9
:1045C0004FF00000704750EA013005D111F0004073
:1045D00008BF6FF0004070474FF00000704700BF09
:1045E00053B94AB9002908BF00281CBF4FF0FF315A
:1045F0004FF0FF3000F07AB9ADF1080C6DE904CE50
:1046000000F006F8DDF804E0DDE9022304B07047AD
:104610002DE9F0478C460D460446089E002B51D1EB
:104620008A4217466DD9B2FA82FEBEF1000F0BD056
:10463000CEF1200C01FA0EF520FA0CFC02FA0EF76E
:104640004CEA050C00FA0EF44FEA174A250CBCFBA5
:10465000FAF81FFA87F90AFB18CC45EA0C4508FB63
:1046600009F3AB420AD9ED1908F1FF3280F023813A
:10467000AB4240F22081A8F102083D44ED1AA4B2F9
:10468000B5FBFAF00AFB105544EA054400FB09F9B2
:10469000A14509D9E41900F1FF3380F00A81A14551
:1046A00040F2078102383C44A4EB090440EA084088
:1046B0000021002E61D024FA0EF4002334607360D0
:1046C000BDE8F0878B4207D9002E54D0002186E840
:1046D00021000846BDE8F087B3FA83F1002940F0D5
:1046E0008E80AB4202D3824200F2FA80841A65EBDC
:1046F00003050120AC46002E3FD086E81010BDE82F
:10470000F08712B90127B7FBF2F7B7FA87FEBEF1BF
:10471000000F34D1EB1B3A0C1FFA87FC0121B3FBCD
:10472000F2F8250C02FB183345EA03450CFB08F3AD
:10473000AB4207D9ED1908F1FF3002D2AB4200F2CB
:10474000D1808046ED1AA3B2B5FBF2F002FB105502
:1047500043EA05440CFB00FCA44507D9E41900F129
:10476000FF3302D2A44500F2B8801846A4EB0C0433
:1047700040EA08409DE731463046BDE8F087CEF17B
:10478000200405FA0EF307FA0EF720FA04F83A0CA3
:1047900025FA04F448EA0308B4FBF2F14FEA18459D
:1047A00002FB11441FFA87FC45EA044501FB0CF3A8
:1047B000AB4200FA0EF409D9ED1901F1FF3080F097
:1047C0008A80AB4240F2878002393D44EB1A1FFADF
:1047D00088F5B3FBF2F002FB103345EA034500FB1A
:1047E0000CF3AB4207D9ED1900F1FF386FD2AB42A1
:1047F0006DD902383D44EB1A40EA01418FE7C1F11F
:10480000200722FA07F88B4005FA01F448EA03036F
:1048100020FA07FE4FEA134CFD404EEA040EB5FBAA
:10482000FCF94FEA1E440CFB19551FFA83F844EAC1
:10483000054509FB08F4AC4202FA01F200FA01FA5C
:1048400008D9ED1809F1FF3043D2AC4241D9A9F1A2
:1048500002091D442D1B1FFA8EFEB5FBFCF00CFB5C
:1048600010554EEA054400FB08F8A04507D9E418A6
:1048700000F1FF3529D2A04527D902381C4440EA6F
:104880000940A4EB0804A0FB02894C45C6464D46EE
:1048900015D312D056B1BAEB0E0364EB050404FA3B
:1048A00007F7CB401F43CC40376074600021BDE860
:1048B000F0871846F8E69046E0E6C245EAD2B8EB43
:1048C000020E69EB03050138E4E72846D7E74046C6
:1048D00091E78146BEE7014678E702383C4445E768
:1048E000084608E7A8F102083D442BE7704700BFDF
:1048F00070B539B105460C4608B1836B83B3B4F982
:104900000C3013B90026304670BD2146284600F011
:1049100037F8E36A064633B1E1692846984700282C
:10492000B8BF4FF0FF36A3891B061CD4216B41B1E1
:1049300004F14003994202D0284600F043FA0023D4
:104940002363616C21B1284600F03CFA00236364C4
:1049500000F0CCF90023A38100F0CAF9304670BD05
:1049600000F0C0F9CBE72169284600F02BFADDE71B
:10497000024B01461868FFF7BBBF00BF40000010A4
:10498000B1F90C309AB22DE9F0410D46110780467D
:104990003AD46A6843F40063002AAB816FDDAC6AE5
:1049A000002C49D000229BB2D8F80060C8F8002043
:1049B00013F4805267D02A6D5F0705D569682B6BA9
:1049C000521A0BB1EB6BD21A0023E9694046A0479B
:1049D000441C3CD0B5F90C302A692A6023F40063EA
:1049E0000022AB81DB046A6047D4296BC8F8006001
:1049F00011B305F14003994202D0404600F0E2F9BC
:104A000000202863BDE8F0812E69AEB12C682E60CD
:104A100091070CBF6B690023A41BAB600AE023461F
:104A200032466F6AE9694046B8470028A4EB0004A3
:104A3000064404DD002CF2DC0020BDE8F081AB89E7
:104A400043F04003AB814FF0FF30BDE8F081D8F870
:104A500000401D2CF3D8194BE340DB4313F0010356
:104A6000EDD1B5F90C206B6022F400632969AB81AC
:104A7000DA042960B9D5002CB7D12865B5E7EA6B0F
:104A8000002A8CDCD8E70123E9694046A047431C93
:104A9000024602D0AB89AC6A8EE7D8F80030002B12
:104AA000F8D01D2B01D0162B02D1C8F80060C3E747
:104AB000AB8943F04003AB81BDE8F08101004020A9
:104AC00010B5044682B008B1836B53B1B1F90C0044
:104AD00008B902B010BD204602B0BDE81040FFF793
:104AE0004FBF019100F0FEF80199EFE720B1054BAF
:104AF00001461868FFF7E4BF034B0449186800F04B
:104B00006DBA00BF400000108CA8001AC14A001AFC
:104B100000207047014900F061BA00BFF148001A57
:104B20002DE9F04F354B4568C3630024074600F577
:104B30003B7204230321C0F8E412C0F8E822C0F855
:104B4000E04283B02C606C60AC606C66EC812C61E0
:104B50006C61AC61AB81214605F15C00082200F07C
:104B6000D3FDBE68DFF898B0DFF898A0DFF8989022
:104B7000DFF89880C5F820B001230922C5F824A0E9
:104B8000C5F82890C5F82C80ED612146F381B281EB
:104B900006F15C0034607460B46074663461746102
:104BA000B4610822019300F0AFFDFD68F6611220A8
:104BB0000222C6F820B0C6F824A0C6F82890C6F88D
:104BC0002C802146A881EA812C606C60AC606C6608
:104BD0002C616C61AC6105F15C00082200F094FD71
:104BE000019BED61C5F820B0C5F824A0C5F8289058
:104BF000C5F82C80BB6303B0BDE8F08F154B001ADD
:104C00006D58001A9558001AD158001AF158001A18
:104C10000020704770B54A1E682505FB02F50E4658
:104C200005F1740100F02CFA044640B100210C306B
:104C3000666005F168022160A06000F065FD204615
:104C400070BD00BF214B70B51D68AB6B0646002BD5
:104C50002CD005F538756B68AC68013B05D521E0B3
:104C6000013B5A1C04F168041CD0B4F90C20002A42
:104C7000F6D100254FF6FF720123E281A38165661C
:104C80002560A560656025616561A56129460822EA
:104C900004F15C0000F038FD256365636564A5647C
:104CA000204670BD286828B10546D4E72846FFF79E
:104CB00037FFCEE704213046FFF7ACFF286000281D
:104CC000F2D10C2304463360EAE700BF8CA8001A37
:104CD000024B0349186800F081B900BF8CA8001A84
:104CE000F148001A836B03B1704719E7704700BFA2
:104CF000704700BF704700BF704700BF024B0349B9
:104D0000186800F045B900BF40000010114C001AAF
:104D1000024B0349186800F03BB900BF4000001087
:104D2000114B001AF8B5244F0C46064600F03AFD28
:104D3000BB685D68C4F57E610F3125F00305294429
:104D400021F47F6121F00F01A1F58054B4F5805F5B
:104D500007DB00213046FBF747FEBB682B44984237
:104D600004D0304600F020FD0020F8BD61423046FE
:104D7000FBF73AFE01300DD0104BBA6819682D1BB5
:104D800045F001053046091B5560196000F00CFD27
:104D90000120F8BD00213046FBF726FEBA68831AD1
:104DA0000F2BDEDD064C0549246843F00103001B90
:104DB00053600860D5E700BF70040010583300103E
:104DC00078080010002944D02DE9F0410D468046B6
:104DD00000F0E8FC55F8047C694927F00103A5F1CF
:104DE0000804E2188E685068B24220F003005ED0DA
:104DF000FE0750600BD455F8087CE41B01F1080E47
:104E0000A56875453B446DD0E768EF60BD60151837
:104E10006D68ED073ED543F001026260E350B3F5E3
:104E2000007F17D2DB08581C9A104D6851F830707B
:104E3000A7600123934001EBC0022B43083AE260D4
:104E40004B6041F83040FC604046BDE8F04100F066
:104E5000ABBC70475A0A042A52D89A0902F13907A2
:104E6000FF0002F13805C819CA59083890424FD0DE
:104E7000516821F003018B4232D292689042F7D1FF
:104E8000C368A060E3609C60C4604046BDE8F04138
:104E900000F08ABC95683B4FBD42034440D0D068C7
:104EA000E86043F0010285606260E350B7E7FF0706
:104EB000034407D455F8082CA41A1344A068E268E8
:104EC000C2609060304A126843F001009342606013
:104ED0008C60B9D32D4B40461968FFF723FFB3E729
:104EE0001046CDE711184968C90744D49168D268C3
:104EF000CA60034443F0010091606060E350A3E79F
:104F0000142A16D802F15C07FF0002F15B05AAE73C
:104F1000AA1001234D6893402B434B600346B0E732
:104F200043F001024C610C61E560A5606260E350F2
:104F30008AE7542A06D81A0B02F16F07FF0002F124
:104F40006E0590E7B2F5AA7F06D8DA0B02F1780772
:104F5000FF0002F1770586E740F25450824206D8FE
:104F60009A0C02F17D07FF0002F17C057BE74FF40C
:104F70007E777E2577E743F001016160136063E788
:104F800070040010780400107C08001054330010E6
:104F90002DE9F04110F538771BD0884600267D6852
:104FA000BC68013D0FD4A389012B05F1FF3506D95B
:104FB000B4F90E300133204601D0C04706436B1CC4
:104FC00004F16804EFD13F68002FE8D13046BDE816
:104FD000F0813E463046BDE8F08100BF2DE9F84340
:104FE00010F538771FD0884606464FF000097D68D7
:104FF000BC68013D11D4A389012B05F1FF3508D907
:10500000B4F90E3001332146304602D0C04749EA98
:1050100000096B1C04F16804EDD13F68002FE6D154
:105020004846BDE8F883B9464846BDE8F88300BF66
:1050300070B50F4E0F4D761BB61018BF002405D06B
:10504000013455F8043B9847A642F9D10A4E0B4D5E
:10505000761BFBF774FCB61018BF002406D0013491
:1050600055F8043B9847A642F9D170BD70BD00BF0A
:1050700060AA001A60AA001A64AA001A60AA001A9C
:105080002DE9F04F01F10B06162E83B0054640F2D4
:105090009E8036F0070600F1BD80B14200F2BA8072
:1050A00000F080FBB6F5FC7FC0F08F82730A00F041
:1050B000B880042B00F27D81B30903F1390003F1BC
:1050C000380EC300C14F3B44A3F108015C68A14204
:1050D00006D10CE0002A80F2AA80E468A14206D042
:1050E000636823F003039A1B0F2AF3DD70463C69C3
:1050F000DFF8DCE2744500F0A781636823F0030366
:105100009A1B0F2A00F38C81002AC7F814E0C7F815
:1051100010E080F29D80B3F5007F80F05D81DB08B8
:1051200003F1010C99107A6857F83C80C4F80880A4
:1051300001238B4007EBCC0113430839E1607B600E
:1051400047F83C40C8F80C408210012494409C422F
:1051500000F28B801C4206D120F0030064001C4248
:1051600000F10400FAD007EBC009CC468046DCF819
:105170000C309C4507D169E1002A80F27781DB6819
:105180009C4500F06381596821F003018A1B0F2AB6
:10519000F2DDD3F80CC0D3F8088001939C1928469F
:1051A00046F0010642F001055E60C8F80CC0CCF87C
:1051B00008807C613C61C4F80CE0C4F808E06560DC
:1051C0005A5000F0F1FA019B03F108041EE0102987
:1051D00020D800F0E7FA1026182302207B4F3B442A
:1051E000A3F108025C68944200F039816368E168C9
:1051F000A66823F00303234428465A68F16042F06E
:1052000001028E605A6000F0CFFA0834204603B0E5
:10521000BDE8F08F00240C2320462B6003B0BDE8CE
:10522000F08F40204FF400734FF03F0E4AE72344C5
:10523000E1685A68A66842F00102F16028468E6073
:105240005A6000F0B1FA0834204603B0BDE8F08F90
:10525000234428465A6842F001025A6000F0A4FA3A
:105260000834204603B0BDE8F08FBC68636823F0C3
:105270000309B14504D3A9EB06030F2B00F3898082
:10528000DFF850A1D7F80824DAF80030013204EB37
:10529000090B06EB030800F0508108F5805808F16F
:1052A0000F0828F47F6828F00F0841462846FBF7CE
:1052B0009BFB421C034600F0F680834500F2F18020
:1052C000DAF804204244CAF8042000F04781D7F8F5
:1052D000081401311BBFA3EB0B0B5A44C7F8083469
:1052E000CAF8042013F0070200F00D81C2F1080192
:1052F000C2F580520B4408329844C8F30B08A2EB65
:105300000808414628460193FBF76EFB431C019BAE
:1053100000F03E81C11A414441F00101DAF8042055
:10532000BB604244BC425960CAF8042016D0B9F1AF
:105330000F0F40F2F4806168A9F10C0323F007031A
:10534000E01801F001014FF0050E19430F2B6160C9
:10535000C0F804E0C0F808E000F21281DAF82C305E
:10536000BC689A42DAF8303088BFCAF82C209A42DA
:1053700088BFCAF83020626822F003029642A2EB8E
:10538000060301D80F2B04DC284600F00DFA002498
:105390003CE7A21943F0010346F001066660284687
:1053A000BA60536000F000FA0834204603B0BDE84C
:1053B000F08F142B69D9542B00F29B80330B03F12F
:1053C0006F0003F16E0EC3007CE600BF7004001096
:1053D00078040010543300105A0A042A5BD9142AA6
:1053E00000F2AE8002F15C01C9005B3207EB010CF8
:1053F0007958ACF1080C8C4500F088804A6822F09E
:105400000302934273D289688C45F7D1DCF80C20F3
:105410007B68E260C4F808C09460CCF80C4093E666
:10542000A11946F0010C42F00106C4F804C0284658
:1054300079613961C1F80CE0C1F808E04E60E250D2
:1054400000F0B2F90834E1E67B687DE608F1010876
:1054500018F0030F0CF1080C7FF489AE2DE0DC6826
:10546000A34208BF02303FF442AEBFE619441C46D7
:105470004A68DB6854F8086F42F001024A60284627
:10548000F3609E6000F090F9C0E603F15C0003F168
:105490005B0EC30016E69A0902F13901C9003832E1
:1054A000A4E7BC4254D0BC68626822F0030265E7FE
:1054B00059F80839994540F0868010F0030F00F143
:1054C000FF30F5D17B6823EA04037B6064009C42D3
:1054D0003FF6CBAE002C3FF4C8AE1C4240467FF4F2
:1054E00042AE64001C4200F10400FAD03BE68C4658
:1054F0008CE7B3F5AA7F15D8F30B03F1780003F11D
:10550000770EC300DEE54FF48052F5E67B6892101B
:10551000012101FA02F213437B60624679E701221E
:105520005A6031E740F25452934223D8B30C03F14E
:105530007D0003F17C0EC300C4E508F11008B4E659
:10554000542A29D81A0B02F16F01C9006E324DE7B7
:10555000DAF804204244CAF80420B8E6CBF30B0181
:1055600000297FF4B4AE09EB0803B96843F00103E6
:105570004B60F3E67F204FF47E734FF07E0EA1E583
:1055800004F108012846FFF71DFCDAF80420E5E6DF
:1055900001214FF00008C1E6B2F5AA7F05D8DA0B69
:1055A00002F17801C900773220E740F254518A4273
:1055B00005D89A0C02F17D01C9007C3216E74FF440
:1055C0007E717E2212E77B6880E7F00806F108030F
:1055D00004E600BF844641EA000313F003036DD1E3
:1055E000403A41D351F8043B40F8043B51F8043BA6
:1055F00040F8043B51F8043B40F8043B51F8043BAD
:1056000040F8043B51F8043B40F8043B51F8043B9C
:1056100040F8043B51F8043B40F8043B51F8043B8C
:1056200040F8043B51F8043B40F8043B51F8043B7C
:1056300040F8043B51F8043B40F8043B51F8043B6C
:1056400040F8043B51F8043B40F8043B51F8043B5C
:1056500040F8043B51F8043B40F8043B51F8043B4C
:1056600040F8043B403ABDD2303211D351F8043BEC
:1056700040F8043B51F8043B40F8043B51F8043B2C
:1056800040F8043B51F8043B40F8043B103AEDD29B
:105690000C3205D351F8043B40F8043B043AF9D2EC
:1056A000043208D0D2071CBF11F8013B00F8013BBF
:1056B00001D30B8803806046704700BF082A13D3CC
:1056C0008B078DD010F003038AD0C3F10403D21AE4
:1056D000DB071CBF11F8013B00F8013B80D331F818
:1056E000023B20F8023B7BE7043AD9D3013A11F898
:1056F000013B00F8013BF9D20B7803704B78437003
:105700008B7883706046704770B4860746D0541E0D
:10571000002A41D0CAB2034602E014F1FF343BD361
:1057200003F8012B9D07F8D1032C2ED9CDB245EA01
:1057300005250F2C45EA054519D903F11002264627
:10574000103E0F2E42F8105C42F80C5C42F8085CE8
:1057500042F8045C02F11002F2D8A4F1100222F027
:105760000F0204F00F041032032C13440DD91E460F
:105770002246043A032A46F8045BFAD8221F22F094
:1057800003020432134404F003042CB1C9B21C44D4
:1057900003F8011B9C42FBD170BC704714460346C2
:1057A000C2E700BF704700BF704700BF0EB400B52E
:1057B00082B003AB816853F8042B019300F010F919
:1057C00002B05DF804EB03B0704700BF0FB400B542
:1057D000074983B004AB086853F8042B8168019330
:1057E00000F0FEF803B05DF804EB04B0704700BFB2
:1057F00040000010F0B5054689B008460C4600F0A0
:105800007FF8AB6B144F04940126441C04A90222B8
:1058100003940590AC680697079601910292B3B184
:10582000B4F90C309A0406D4626E43F4005322F4A7
:105830000052A38162662146284601AA02F0A2FB1B
:10584000002814BF4FF0FF300A2009B0F0BD2846F1
:10585000FFF748FAE4E700BFD4A4001A024B014660
:105860001868FFF7C7BF00BF4000001010B50C4616
:10587000B1F90E10FBF77CF8002803DB236D03441D
:10588000236510BDA38923F48053A38110BD00BFFD
:10589000002070472DE9F0411646B1F90C201F4653
:1058A000D3050C46054607D500220223B1F90E1098
:1058B000FBF759F8B4F90C20B4F90E1022F4805219
:1058C000A2813B4632462846BDE8F041FBF778B856
:1058D00010B50C46B1F90E10FBF745F8A389421C30
:1058E0000EBF23F4805343F480532065A38110BD81
:1058F000B1F90E10FBF724B8FFFFFFFFFFFFFFFF1A
:1059000090F800F06DE9024520F007016FF0000CFF
:1059100010F0070491F820F040F049804FF00004A7
:105920006FF00700D1E9002391F840F000F1080082
:1059300082FA4CF2A4FA8CF283FA4CF3A2FA8CF3BA
:105940004BBBD1E9022382FA4CF200F10800A4FA21
:105950008CF283FA4CF3A2FA8CF3E3B9D1E9042375
:1059600082FA4CF200F10800A4FA8CF283FA4CF3AC
:10597000A2FA8CF37BB9D1E9062301F1200182FA66
:105980004CF200F10800A4FA8CF283FA4CF3A2FA6C
:105990008CF3002BC6D0002A04BF04301A4612BA7A
:1059A000B2FA82F2FDE8024500EBD2007047D1E97D
:1059B000002304F00305C4F100004FEAC50514F00C
:1059C000040F91F840F00CFA05F562EA05021CBFDD
:1059D00063EA050362464FF00004A9E7FFFFFFFFFB
:1059E0002DE9F04FBFB01D468A4691460446069009
:1059F00002F070FC036812931846FFF781FF0A95C6
:105A000010901CB1A36B002B00F02081BAF90C2080
:105A100093B298040AD4DAF8641042F4005321F4E3
:105A20000051AAF80C30CAF864109BB2190740F173
:105A3000E480DAF81020002A00F0DF8003F01A0377
:105A40000A2B00F0E8809FED847B00238DED0E7B18
:105A50000D93239322931193139307932EAB2193CA
:105A60009846CDF814A099F800304C46EBB1252BA0
:105A700002D11AE0252B03D014F8013F002BF9D1F5
:105A8000A4EB09058DB1229B239AC8F8009001333D
:105A90002A44072BC8F804502392229300F3CB80AA
:105AA00008F10808079B2B4407932378002B00F08C
:105AB000D58300231A468DF86730194608939B4614
:105AC00066784FF0FF3304F10109049309F10109ED
:105AD000A6F12003582B00F29883DFE813F09A0216
